{
  "_format": "hh-sol-artifact-1",
  "contractName": "SmartDeFiRouter",
  "sourceName": "contracts/SmartDeFiRouter.sol",
  "abi": [
    {
      "inputs": [
        {
          "internalType": "address",
          "name": "_usdcToken",
          "type": "address"
        }
      ],
      "stateMutability": "nonpayable",
      "type": "constructor"
    },
    {
      "anonymous": false,
      "inputs": [
        {
          "indexed": true,
          "internalType": "address",
          "name": "user",
          "type": "address"
        },
        {
          "indexed": false,
          "internalType": "address",
          "name": "protocol",
          "type": "address"
        },
        {
          "indexed": false,
          "internalType": "uint256",
          "name": "amount",
          "type": "uint256"
        }
      ],
      "name": "PositionClosed",
      "type": "event"
    },
    {
      "anonymous": false,
      "inputs": [
        {
          "indexed": true,
          "internalType": "address",
          "name": "user",
          "type": "address"
        },
        {
          "indexed": false,
          "internalType": "address",
          "name": "protocol",
          "type": "address"
        },
        {
          "indexed": false,
          "internalType": "uint256",
          "name": "amount",
          "type": "uint256"
        }
      ],
      "name": "PositionOpened",
      "type": "event"
    },
    {
      "anonymous": false,
      "inputs": [
        {
          "indexed": true,
          "internalType": "uint256",
          "name": "protocolId",
          "type": "uint256"
        },
        {
          "indexed": false,
          "internalType": "string",
          "name": "name",
          "type": "string"
        },
        {
          "indexed": false,
          "internalType": "address",
          "name": "protocolAddress",
          "type": "address"
        }
      ],
      "name": "ProtocolAdded",
      "type": "event"
    },
    {
      "anonymous": false,
      "inputs": [
        {
          "indexed": true,
          "internalType": "uint256",
          "name": "protocolId",
          "type": "uint256"
        },
        {
          "indexed": false,
          "internalType": "uint256",
          "name": "yield",
          "type": "uint256"
        },
        {
          "indexed": false,
          "internalType": "uint256",
          "name": "riskScore",
          "type": "uint256"
        }
      ],
      "name": "ProtocolUpdated",
      "type": "event"
    },
    {
      "anonymous": false,
      "inputs": [
        {
          "indexed": true,
          "internalType": "address",
          "name": "user",
          "type": "address"
        },
        {
          "indexed": false,
          "internalType": "uint256",
          "name": "oldYield",
          "type": "uint256"
        },
        {
          "indexed": false,
          "internalType": "uint256",
          "name": "newYield",
          "type": "uint256"
        }
      ],
      "name": "Rebalanced",
      "type": "event"
    },
    {
      "anonymous": false,
      "inputs": [
        {
          "indexed": true,
          "internalType": "address",
          "name": "user",
          "type": "address"
        },
        {
          "indexed": false,
          "internalType": "uint256",
          "name": "expectedYield",
          "type": "uint256"
        },
        {
          "indexed": false,
          "internalType": "uint256",
          "name": "riskScore",
          "type": "uint256"
        }
      ],
      "name": "RouteOptimized",
      "type": "event"
    },
    {
      "anonymous": false,
      "inputs": [
        {
          "indexed": true,
          "internalType": "address",
          "name": "user",
          "type": "address"
        },
        {
          "indexed": false,
          "internalType": "uint256",
          "name": "targetYield",
          "type": "uint256"
        },
        {
          "indexed": false,
          "internalType": "uint256",
          "name": "maxRisk",
          "type": "uint256"
        }
      ],
      "name": "StrategyUpdated",
      "type": "event"
    },
    {
      "inputs": [],
      "name": "BASIS_POINTS",
      "outputs": [
        {
          "internalType": "uint256",
          "name": "",
          "type": "uint256"
        }
      ],
      "stateMutability": "view",
      "type": "function"
    },
    {
      "inputs": [
        {
          "internalType": "address",
          "name": "",
          "type": "address"
        }
      ],
      "name": "activeRoutes",
      "outputs": [
        {
          "internalType": "uint256",
          "name": "expectedYield",
          "type": "uint256"
        },
        {
          "internalType": "uint256",
          "name": "riskScore",
          "type": "uint256"
        },
        {
          "internalType": "uint256",
          "name": "timestamp",
          "type": "uint256"
        }
      ],
      "stateMutability": "view",
      "type": "function"
    },
    {
      "inputs": [
        {
          "internalType": "address",
          "name": "_protocolAddress",
          "type": "address"
        },
        {
          "internalType": "string",
          "name": "_name",
          "type": "string"
        },
        {
          "internalType": "uint256",
          "name": "_riskScore",
          "type": "uint256"
        },
        {
          "internalType": "uint256",
          "name": "_currentYield",
          "type": "uint256"
        }
      ],
      "name": "addProtocol",
      "outputs": [],
      "stateMutability": "nonpayable",
      "type": "function"
    },
    {
      "inputs": [
        {
          "internalType": "address",
          "name": "_user",
          "type": "address"
        },
        {
          "internalType": "uint256",
          "name": "_amount",
          "type": "uint256"
        }
      ],
      "name": "calculateOptimalRoute",
      "outputs": [
        {
          "internalType": "address[]",
          "name": "",
          "type": "address[]"
        },
        {
          "internalType": "uint256[]",
          "name": "",
          "type": "uint256[]"
        },
        {
          "internalType": "uint256",
          "name": "",
          "type": "uint256"
        },
        {
          "internalType": "uint256",
          "name": "",
          "type": "uint256"
        }
      ],
      "stateMutability": "view",
      "type": "function"
    },
    {
      "inputs": [
        {
          "internalType": "address",
          "name": "_token",
          "type": "address"
        },
        {
          "internalType": "uint256",
          "name": "_amount",
          "type": "uint256"
        }
      ],
      "name": "emergencyWithdraw",
      "outputs": [],
      "stateMutability": "nonpayable",
      "type": "function"
    },
    {
      "inputs": [
        {
          "internalType": "uint256",
          "name": "_amount",
          "type": "uint256"
        }
      ],
      "name": "executeRoute",
      "outputs": [],
      "stateMutability": "nonpayable",
      "type": "function"
    },
    {
      "inputs": [
        {
          "internalType": "address",
          "name": "_user",
          "type": "address"
        }
      ],
      "name": "getActiveRoute",
      "outputs": [
        {
          "internalType": "address[]",
          "name": "",
          "type": "address[]"
        },
        {
          "internalType": "uint256[]",
          "name": "",
          "type": "uint256[]"
        },
        {
          "internalType": "uint256",
          "name": "",
          "type": "uint256"
        },
        {
          "internalType": "uint256",
          "name": "",
          "type": "uint256"
        },
        {
          "internalType": "uint256",
          "name": "",
          "type": "uint256"
        }
      ],
      "stateMutability": "view",
      "type": "function"
    },
    {
      "inputs": [],
      "name": "getAllProtocols",
      "outputs": [
        {
          "components": [
            {
              "internalType": "address",
              "name": "protocolAddress",
              "type": "address"
            },
            {
              "internalType": "string",
              "name": "name",
              "type": "string"
            },
            {
              "internalType": "uint256",
              "name": "riskScore",
              "type": "uint256"
            },
            {
              "internalType": "uint256",
              "name": "currentYield",
              "type": "uint256"
            },
            {
              "internalType": "uint256",
              "name": "totalDeposited",
              "type": "uint256"
            },
            {
              "internalType": "uint256",
              "name": "liquidity",
              "type": "uint256"
            },
            {
              "internalType": "bool",
              "name": "isActive",
              "type": "bool"
            },
            {
              "internalType": "uint256",
              "name": "lastUpdateTime",
              "type": "uint256"
            }
          ],
          "internalType": "struct SmartDeFiRouter.Protocol[]",
          "name": "",
          "type": "tuple[]"
        }
      ],
      "stateMutability": "view",
      "type": "function"
    },
    {
      "inputs": [
        {
          "internalType": "uint256",
          "name": "_protocolId",
          "type": "uint256"
        }
      ],
      "name": "getProtocol",
      "outputs": [
        {
          "components": [
            {
              "internalType": "address",
              "name": "protocolAddress",
              "type": "address"
            },
            {
              "internalType": "string",
              "name": "name",
              "type": "string"
            },
            {
              "internalType": "uint256",
              "name": "riskScore",
              "type": "uint256"
            },
            {
              "internalType": "uint256",
              "name": "currentYield",
              "type": "uint256"
            },
            {
              "internalType": "uint256",
              "name": "totalDeposited",
              "type": "uint256"
            },
            {
              "internalType": "uint256",
              "name": "liquidity",
              "type": "uint256"
            },
            {
              "internalType": "bool",
              "name": "isActive",
              "type": "bool"
            },
            {
              "internalType": "uint256",
              "name": "lastUpdateTime",
              "type": "uint256"
            }
          ],
          "internalType": "struct SmartDeFiRouter.Protocol",
          "name": "",
          "type": "tuple"
        }
      ],
      "stateMutability": "view",
      "type": "function"
    },
    {
      "inputs": [
        {
          "internalType": "address",
          "name": "_user",
          "type": "address"
        }
      ],
      "name": "getUserPositions",
      "outputs": [
        {
          "components": [
            {
              "internalType": "address",
              "name": "protocol",
              "type": "address"
            },
            {
              "internalType": "uint256",
              "name": "amount",
              "type": "uint256"
            },
            {
              "internalType": "uint256",
              "name": "entryTime",
              "type": "uint256"
            },
            {
              "internalType": "uint256",
              "name": "entryYield",
              "type": "uint256"
            }
          ],
          "internalType": "struct SmartDeFiRouter.Position[]",
          "name": "",
          "type": "tuple[]"
        }
      ],
      "stateMutability": "view",
      "type": "function"
    },
    {
      "inputs": [],
      "name": "owner",
      "outputs": [
        {
          "internalType": "address",
          "name": "",
          "type": "address"
        }
      ],
      "stateMutability": "view",
      "type": "function"
    },
    {
      "inputs": [],
      "name": "protocolCount",
      "outputs": [
        {
          "internalType": "uint256",
          "name": "",
          "type": "uint256"
        }
      ],
      "stateMutability": "view",
      "type": "function"
    },
    {
      "inputs": [
        {
          "internalType": "uint256",
          "name": "",
          "type": "uint256"
        }
      ],
      "name": "protocols",
      "outputs": [
        {
          "internalType": "address",
          "name": "protocolAddress",
          "type": "address"
        },
        {
          "internalType": "string",
          "name": "name",
          "type": "string"
        },
        {
          "internalType": "uint256",
          "name": "riskScore",
          "type": "uint256"
        },
        {
          "internalType": "uint256",
          "name": "currentYield",
          "type": "uint256"
        },
        {
          "internalType": "uint256",
          "name": "totalDeposited",
          "type": "uint256"
        },
        {
          "internalType": "uint256",
          "name": "liquidity",
          "type": "uint256"
        },
        {
          "internalType": "bool",
          "name": "isActive",
          "type": "bool"
        },
        {
          "internalType": "uint256",
          "name": "lastUpdateTime",
          "type": "uint256"
        }
      ],
      "stateMutability": "view",
      "type": "function"
    },
    {
      "inputs": [],
      "name": "rebalance",
      "outputs": [],
      "stateMutability": "nonpayable",
      "type": "function"
    },
    {
      "inputs": [
        {
          "internalType": "uint256",
          "name": "_targetYield",
          "type": "uint256"
        },
        {
          "internalType": "uint256",
          "name": "_maxRisk",
          "type": "uint256"
        },
        {
          "internalType": "uint256",
          "name": "_duration",
          "type": "uint256"
        },
        {
          "internalType": "bool",
          "name": "_autoRebalance",
          "type": "bool"
        },
        {
          "internalType": "uint256",
          "name": "_rebalanceThreshold",
          "type": "uint256"
        }
      ],
      "name": "setStrategy",
      "outputs": [],
      "stateMutability": "nonpayable",
      "type": "function"
    },
    {
      "inputs": [
        {
          "internalType": "address",
          "name": "_user",
          "type": "address"
        }
      ],
      "name": "shouldRebalance",
      "outputs": [
        {
          "internalType": "bool",
          "name": "",
          "type": "bool"
        }
      ],
      "stateMutability": "view",
      "type": "function"
    },
    {
      "inputs": [
        {
          "internalType": "address",
          "name": "",
          "type": "address"
        }
      ],
      "name": "totalUserBalance",
      "outputs": [
        {
          "internalType": "uint256",
          "name": "",
          "type": "uint256"
        }
      ],
      "stateMutability": "view",
      "type": "function"
    },
    {
      "inputs": [],
      "name": "totalValueLocked",
      "outputs": [
        {
          "internalType": "uint256",
          "name": "",
          "type": "uint256"
        }
      ],
      "stateMutability": "view",
      "type": "function"
    },
    {
      "inputs": [
        {
          "internalType": "uint256",
          "name": "_protocolId",
          "type": "uint256"
        },
        {
          "internalType": "uint256",
          "name": "_yield",
          "type": "uint256"
        },
        {
          "internalType": "uint256",
          "name": "_riskScore",
          "type": "uint256"
        },
        {
          "internalType": "uint256",
          "name": "_liquidity",
          "type": "uint256"
        }
      ],
      "name": "updateProtocol",
      "outputs": [],
      "stateMutability": "nonpayable",
      "type": "function"
    },
    {
      "inputs": [],
      "name": "usdcToken",
      "outputs": [
        {
          "internalType": "address",
          "name": "",
          "type": "address"
        }
      ],
      "stateMutability": "view",
      "type": "function"
    },
    {
      "inputs": [
        {
          "internalType": "address",
          "name": "",
          "type": "address"
        },
        {
          "internalType": "uint256",
          "name": "",
          "type": "uint256"
        }
      ],
      "name": "userPositions",
      "outputs": [
        {
          "internalType": "address",
          "name": "protocol",
          "type": "address"
        },
        {
          "internalType": "uint256",
          "name": "amount",
          "type": "uint256"
        },
        {
          "internalType": "uint256",
          "name": "entryTime",
          "type": "uint256"
        },
        {
          "internalType": "uint256",
          "name": "entryYield",
          "type": "uint256"
        }
      ],
      "stateMutability": "view",
      "type": "function"
    },
    {
      "inputs": [
        {
          "internalType": "address",
          "name": "",
          "type": "address"
        }
      ],
      "name": "userStrategies",
      "outputs": [
        {
          "internalType": "uint256",
          "name": "targetYield",
          "type": "uint256"
        },
        {
          "internalType": "uint256",
          "name": "maxRisk",
          "type": "uint256"
        },
        {
          "internalType": "uint256",
          "name": "duration",
          "type": "uint256"
        },
        {
          "internalType": "bool",
          "name": "autoRebalance",
          "type": "bool"
        },
        {
          "internalType": "uint256",
          "name": "rebalanceThreshold",
          "type": "uint256"
        }
      ],
      "stateMutability": "view",
      "type": "function"
    },
    {
      "inputs": [],
      "name": "withdrawAll",
      "outputs": [],
      "stateMutability": "nonpayable",
      "type": "function"
    }
  ],
  "bytecode": "0x60806040523480156200001157600080fd5b506040516200284538038062002845833981016040819052620000349162000068565b60008054336001600160a01b031991821617909155600180549091166001600160a01b03929092169190911790556200009a565b6000602082840312156200007b57600080fd5b81516001600160a01b03811681146200009357600080fd5b9392505050565b61279b80620000aa6000396000f3fe608060405234801561001057600080fd5b506004361061014d5760003560e01c80637903b88f116100c3578063985a87fe1161007c578063985a87fe146103c9578063c8ed67c2146103ec578063cd7d70f3146103ff578063e1f1c4a714610412578063e2eed04f1461041b578063ec18154e1461042457600080fd5b80637903b88f146103485780637d7c2a1c1461036c578063853828b6146103745780638c3962201461037c5780638da5cb5b146103a357806395ccea67146103b657600080fd5b8063487bb96511610115578063487bb9651461023257806350ac6879146102a05780635e1b4d99146102b357806371c34f44146102f0578063741c53eb14610313578063783ec7f01461032857600080fd5b806311eac85514610152578063124c9bb61461018257806320cb5aa6146101cf5780632a6bc2dd146101fd57806336e1f84d1461021d575b600080fd5b600154610165906001600160a01b031681565b6040516001600160a01b0390911681526020015b60405180910390f35b6101b4610190366004612040565b60056020526000908152604090206002810154600382015460049092015490919083565b60408051938452602084019290925290820152606001610179565b6101ef6101dd366004612040565b60066020526000908152604090205481565b604051908152602001610179565b61021061020b366004612040565b61042d565b6040516101799190612062565b61023061022b3660046120e5565b6104cd565b005b610276610240366004612040565b60046020819052600091825260409091208054600182015460028301546003840154939094015491939092909160ff9091169085565b6040805195865260208601949094529284019190915215156060830152608082015260a001610179565b6102306102ae3660046121b7565b610678565b6102c66102c13660046121e9565b610754565b604080516001600160a01b0390951685526020850193909352918301526060820152608001610179565b6103036102fe366004612040565b6107a4565b6040519015158152602001610179565b61031b610989565b60405161017991906122cc565b61033b61033636600461232e565b610b2a565b6040516101799190612347565b61035b610356366004612040565b610c7d565b6040516101799594939291906123ce565b610230610dbd565b6102306110f3565b61038f61038a36600461232e565b611311565b604051610179989796959493929190612411565b600054610165906001600160a01b031681565b6102306103c43660046121e9565b6113ea565b6103dc6103d73660046121e9565b61144d565b604051610179949392919061246b565b6102306103fa3660046124b2565b611939565b61023061040d36600461232e565b611a23565b6101ef61271081565b6101ef60075481565b6101ef60085481565b6001600160a01b0381166000908152600360209081526040808320805482518185028101850190935280835260609492939192909184015b828210156104c2576000848152602090819020604080516080810182526004860290920180546001600160a01b03168352600180820154848601526002820154928401929092526003015460608301529083529092019101610465565b505050509050919050565b6000546001600160a01b031633146105005760405162461bcd60e51b81526004016104f7906124fb565b60405180910390fd5b60648211156105515760405162461bcd60e51b815260206004820152601860248201527f5269736b2073636f7265206d75737420626520312d313030000000000000000060448201526064016104f7565b60408051610100810182526001600160a01b03868116825260208083018781528385018790526060840186905260006080850181905260a08501819052600160c086018190524260e08701526007548252600290935294909420835181546001600160a01b0319169316929092178255925191929091908201906105d590826125b4565b506040828101516002830155606083015160038301556080830151600483015560a0830151600583015560c083015160068301805460ff191691151591909117905560e0909201516007918201555490517fb23175a7672d7a3f1ee8d6475a301b6ca026e7defa7bef314817383e8c01c2ef906106559086908890612674565b60405180910390a26007805490600061066d836126b4565b919050555050505050565b6000546001600160a01b031633146106a25760405162461bcd60e51b81526004016104f7906124fb565b60075484106106e65760405162461bcd60e51b815260206004820152601060248201526f125b9d985b1a59081c1c9bdd1bd8dbdb60821b60448201526064016104f7565b60008481526002602081815260409283902060038101879055918201859055600582018490554260078301558251868152908101859052909186917f17c2fa7037bcdee162f848ed97d5677bea2279ae03eea98c99257f7f26920d0e91015b60405180910390a25050505050565b6003602052816000526040600020818154811061077057600080fd5b600091825260209091206004909102018054600182015460028301546003909301546001600160a01b039092169450925084565b6001600160a01b0381166000908152600460208181526040808420815160a08101835281548152600182015493810193909352600281015491830191909152600381015460ff1615156060830181905292015460808201529061080a5750600092915050565b6001600160a01b03831660009081526005602090815260408083208151815460c09481028201850190935260a0810183815290939192849284919084018282801561087e57602002820191906000526020600020905b81546001600160a01b03168152600190910190602001808311610860575b50505050508152602001600182018054806020026020016040519081016040528092919081815260200182805480156108d657602002820191906000526020600020905b8154815260200190600101908083116108c2575b50505050508152602001600282015481526020016003820154815260200160048201548152505090508060800151600003610915575060009392505050565b6001600160a01b03841660009081526006602052604081205461093990869061144d565b5092505050600081836040015111610952576000610976565b604083015161096183826126cd565b61096c9060646126e6565b61097691906126fd565b6080909401519093101595945050505050565b6060600060075467ffffffffffffffff8111156109a8576109a86120cf565b6040519080825280602002602001820160405280156109e157816020015b6109ce611ea9565b8152602001906001900390816109c65790505b50905060005b600754811015610b24576000818152600260209081526040918290208251610100810190935280546001600160a01b031683526001810180549192840191610a2e90612532565b80601f0160208091040260200160405190810160405280929190818152602001828054610a5a90612532565b8015610aa75780601f10610a7c57610100808354040283529160200191610aa7565b820191906000526020600020905b815481529060010190602001808311610a8a57829003601f168201915b505050918352505060028201546020820152600382015460408201526004820154606082015260058201546080820152600682015460ff16151560a082015260079091015460c0909101528251839083908110610b0657610b0661271f565b60200260200101819052508080610b1c906126b4565b9150506109e7565b50919050565b610b32611ea9565b6007548210610b765760405162461bcd60e51b815260206004820152601060248201526f125b9d985b1a59081c1c9bdd1bd8dbdb60821b60448201526064016104f7565b6000828152600260209081526040918290208251610100810190935280546001600160a01b031683526001810180549192840191610bb390612532565b80601f0160208091040260200160405190810160405280929190818152602001828054610bdf90612532565b8015610c2c5780601f10610c0157610100808354040283529160200191610c2c565b820191906000526020600020905b815481529060010190602001808311610c0f57829003601f168201915b505050918352505060028201546020820152600382015460408201526004820154606082015260058201546080820152600682015460ff16151560a082015260079091015460c09091015292915050565b60608060008060008060056000886001600160a01b03166001600160a01b031681526020019081526020016000206040518060a001604052908160008201805480602002602001604051908101604052809291908181526020018280548015610d0f57602002820191906000526020600020905b81546001600160a01b03168152600190910190602001808311610cf1575b5050505050815260200160018201805480602002602001604051908101604052809291908181526020018280548015610d6757602002820191906000526020600020905b815481526020019060010190808311610d53575b505050505081526020016002820154815260200160038201548152602001600482015481525050905080600001518160200151826040015183606001518460800151955095509550955095505091939590929450565b610dc6336107a4565b610e0b5760405162461bcd60e51b8152602060048201526016602482015275149958985b185b98da5b99c81b9bdd081b995959195960521b60448201526064016104f7565b3360009081526005602090815260408083208151815460c09481028201850190935260a08101838152909391928492849190840182828015610e7657602002820191906000526020600020905b81546001600160a01b03168152600190910190602001808311610e58575b5050505050815260200160018201805480602002602001604051908101604052809291908181526020018280548015610ece57602002820191906000526020600020905b815481526020019060010190808311610eba575b5050505050815260200160028201548152602001600382015481526020016004820154815250509050600060066000336001600160a01b03166001600160a01b03168152602001908152602001600020549050610f296110f3565b6001546040516323b872dd60e01b8152336004820152306024820152604481018390526001600160a01b03909116906323b872dd906064016020604051808303816000875af1158015610f80573d6000803e3d6000fd5b505050506040513d601f19601f82011682018060405250810190610fa49190612735565b50610fae81611a23565b3360009081526005602090815260408083208151815460c09481028201850190935260a0810183815290939192849284919084018282801561101957602002820191906000526020600020905b81546001600160a01b03168152600190910190602001808311610ffb575b505050505081526020016001820180548060200260200160405190810160405280929190818152602001828054801561107157602002820191906000526020600020905b81548152602001906001019080831161105d575b5050505050815260200160028201548152602001600382015481526020016004820154815250509050336001600160a01b03167f3645b7cfbb41ac8e6dcc3c4877ede2c60b467a0374b7a7fc7563f0a09580999e846040015183604001516040516110e6929190918252602082015260400190565b60405180910390a2505050565b336000908152600360205260409020805461113f5760405162461bcd60e51b815260206004820152600c60248201526b4e6f20706f736974696f6e7360a01b60448201526064016104f7565b6000805b82548110156112165760008382815481106111605761116061271f565b600091825260209182902060408051608081018252600490930290910180546001600160a01b03168352600181015493830184905260028101549183019190915260030154606082015291506111b69084612752565b8151602080840151604080516001600160a01b0390941684529183015291945033917f8b60ee59fde7fe878d00e7ff88684e1f938c140af42c1a7f62e7ca182dfc620c910160405180910390a2508061120e816126b4565b915050611143565b5033600090815260036020526040812061122f91611ef9565b336000908152600560205260408120906112498282611f1d565b611257600183016000611f1d565b50600060028201819055600382018190556004909101819055338152600660205260408120819055600880548392906112919084906126cd565b909155505060015460405163a9059cbb60e01b8152336004820152602481018390526001600160a01b039091169063a9059cbb906044015b6020604051808303816000875af11580156112e8573d6000803e3d6000fd5b505050506040513d601f19601f8201168201806040525081019061130c9190612735565b505050565b600260205260009081526040902080546001820180546001600160a01b03909216929161133d90612532565b80601f016020809104026020016040519081016040528092919081815260200182805461136990612532565b80156113b65780601f1061138b576101008083540402835291602001916113b6565b820191906000526020600020905b81548152906001019060200180831161139957829003601f168201915b50505060028401546003850154600486015460058701546006880154600790980154969793969295509093509160ff169088565b6000546001600160a01b031633146114145760405162461bcd60e51b81526004016104f7906124fb565b60005460405163a9059cbb60e01b81526001600160a01b039182166004820152602481018390529083169063a9059cbb906044016112c9565b6001600160a01b0382166000908152600460208181526040808420815160a081018352815481526001820154938101849052600282015492810192909252600381015460ff16151560608381019190915293015460808201529192839290918291906114ee5760405162461bcd60e51b815260206004820152601060248201526f14dd1c985d1959de481b9bdd081cd95d60821b60448201526064016104f7565b60008060075467ffffffffffffffff81111561150c5761150c6120cf565b604051908082528060200260200182016040528015611535578160200160208202803683370190505b50905060005b6007548110156115e15760008181526002602052604090206006015460ff16801561158057508360200151600260008381526020019081526020016000206002015411155b801561159e5750835160008281526002602052604090206003015410155b156115cf57808284815181106115b6576115b661271f565b6020908102919091010152826115cb816126b4565b9350505b806115d9816126b4565b91505061153b565b50600082116116325760405162461bcd60e51b815260206004820152601b60248201527f4e6f2070726f746f636f6c73206d61746368206372697465726961000000000060448201526064016104f7565b6000600383116116425782611645565b60035b67ffffffffffffffff81111561165d5761165d6120cf565b604051908082528060200260200182016040528015611686578160200160208202803683370190505b509050600060038411611699578361169c565b60035b67ffffffffffffffff8111156116b4576116b46120cf565b6040519080825280602002602001820160405280156116dd578160200160208202803683370190505b50905060008060005b600387116116f457866116f7565b60035b8110156118e4576000600260008884815181106117165761171661271f565b60200260200101518152602001908152602001600020604051806101000160405290816000820160009054906101000a90046001600160a01b03166001600160a01b03166001600160a01b0316815260200160018201805461177790612532565b80601f01602080910402602001604051908101604052809291908181526020018280546117a390612532565b80156117f05780601f106117c5576101008083540402835291602001916117f0565b820191906000526020600020905b8154815290600101906020018083116117d357829003601f168201915b505050918352505060028201546020820152600382015460408201526004820154606082015260058201546080820152600682015460ff16151560a082015260079091015460c09091015280518751919250908790849081106118555761185561271f565b60200260200101906001600160a01b031690816001600160a01b031681525050600388116118835787611886565b60035b611890908f6126fd565b8583815181106118a2576118a261271f565b602090810291909101015260608101516118bc9085612752565b93508060400151836118ce9190612752565b92505080806118dc906126b4565b9150506116e6565b506000600387116118f557866118f8565b60035b61190290846126fd565b90506000600388116119145787611917565b60035b61192190846126fd565b959f949e50909c50939a509198505050505050505050565b60648411156119835760405162461bcd60e51b815260206004820152601660248201527504d6178207269736b206d75737420626520312d3130360541b60448201526064016104f7565b6040805160a08101825286815260208082018781528284018781528615156060850190815260808501878152336000818152600480885290899020975188559451600188015592516002870155905160038601805460ff1916911515919091179055519390910192909255825188815290810187905290917f36535b0d6c4df3e3f4a1bd7a4c8214552b30ab0d1ad28d4d9fefe157a7777c0e9101610745565b60008111611a685760405162461bcd60e51b81526020600482015260126024820152710416d6f756e74206d757374206265203e20360741b60448201526064016104f7565b33600090815260046020526040902060010154611abc5760405162461bcd60e51b815260206004820152601260248201527114d95d081cdd1c985d1959de48199a5c9cdd60721b60448201526064016104f7565b6001546040516323b872dd60e01b8152336004820152306024820152604481018390526001600160a01b03909116906323b872dd906064016020604051808303816000875af1158015611b13573d6000803e3d6000fd5b505050506040513d601f19601f82011682018060405250810190611b379190612735565b50600080600080611b48338661144d565b935093509350935060005b8451811015611dae576000848281518110611b7057611b7061271f565b60200260200101511115611d9c5760015485516001600160a01b039091169063095ea7b390879084908110611ba757611ba761271f565b6020026020010151868481518110611bc157611bc161271f565b60200260200101516040518363ffffffff1660e01b8152600401611bfa9291906001600160a01b03929092168252602082015260400190565b6020604051808303816000875af1158015611c19573d6000803e3d6000fd5b505050506040513d601f19601f82011682018060405250810190611c3d9190612735565b5060036000336001600160a01b03166001600160a01b031681526020019081526020016000206040518060800160405280878481518110611c8057611c8061271f565b60200260200101516001600160a01b03168152602001868481518110611ca857611ca861271f565b602090810291909101810151825242828201526040918201879052835460018082018655600095865294829020845160049092020180546001600160a01b0319166001600160a01b039092169190911781559083015193810193909355810151600283015560600151600390910155845133907fe01e9ad0238c189207821b84bca068519343d9e9cd923f04184eba2575c110a390879084908110611d4f57611d4f61271f565b6020026020010151868481518110611d6957611d6961271f565b6020026020010151604051611d939291906001600160a01b03929092168252602082015260400190565b60405180910390a25b80611da6816126b4565b915050611b53565b506040805160a08101825285815260208082018690528183018590526060820184905242608083015233600090815260058252929092208151805192939192611dfa9284920190611f3b565b506020828101518051611e139260018501920190611fa0565b5060408281015160028301556060830151600383015560809092015160049091015533600090815260066020529081208054879290611e53908490612752565b925050819055508460086000828254611e6c9190612752565b9091555050604080518381526020810183905233917f78f1b7dc3bf0d0a7847e783c42e11643cdaa668643131b5d18bdf66fe132c0e09101610745565b60405180610100016040528060006001600160a01b031681526020016060815260200160008152602001600081526020016000815260200160008152602001600015158152602001600081525090565b5080546000825560040290600052602060002090810190611f1a9190611fdb565b50565b5080546000825590600052602060002090810190611f1a919061200f565b828054828255906000526020600020908101928215611f90579160200282015b82811115611f9057825182546001600160a01b0319166001600160a01b03909116178255602090920191600190910190611f5b565b50611f9c92915061200f565b5090565b828054828255906000526020600020908101928215611f90579160200282015b82811115611f90578251825591602001919060010190611fc0565b5b80821115611f9c5780546001600160a01b0319168155600060018201819055600282018190556003820155600401611fdc565b5b80821115611f9c5760008155600101612010565b80356001600160a01b038116811461203b57600080fd5b919050565b60006020828403121561205257600080fd5b61205b82612024565b9392505050565b602080825282518282018190526000919060409081850190868401855b828110156120c257815180516001600160a01b0316855286810151878601528581015186860152606090810151908501526080909301929085019060010161207f565b5091979650505050505050565b634e487b7160e01b600052604160045260246000fd5b600080600080608085870312156120fb57600080fd5b61210485612024565b9350602085013567ffffffffffffffff8082111561212157600080fd5b818701915087601f83011261213557600080fd5b813581811115612147576121476120cf565b604051601f8201601f19908116603f0116810190838211818310171561216f5761216f6120cf565b816040528281528a602084870101111561218857600080fd5b826020860160208301376000928101602001929092525095989597505050506040840135936060013592915050565b600080600080608085870312156121cd57600080fd5b5050823594602084013594506040840135936060013592509050565b600080604083850312156121fc57600080fd5b61220583612024565b946020939093013593505050565b6000815180845260005b818110156122395760208185018101518683018201520161221d565b506000602082860101526020601f19601f83011685010191505092915050565b600061010060018060a01b038351168452602083015181602086015261228182860182612213565b91505060408301516040850152606083015160608501526080830151608085015260a083015160a085015260c0830151151560c085015260e083015160e08501528091505092915050565b6000602080830181845280855180835260408601915060408160051b870101925083870160005b8281101561232157603f1988860301845261230f858351612259565b945092850192908501906001016122f3565b5092979650505050505050565b60006020828403121561234057600080fd5b5035919050565b60208152600061205b6020830184612259565b600081518084526020808501945080840160005b838110156123935781516001600160a01b03168752958201959082019060010161236e565b509495945050505050565b600081518084526020808501945080840160005b83811015612393578151875295820195908201906001016123b2565b60a0815260006123e160a083018861235a565b82810360208401526123f3818861239e565b60408401969096525050606081019290925260809091015292915050565b6001600160a01b0389168152610100602082018190526000906124368382018b612213565b604084019990995250506060810195909552608085019390935260a0840191909152151560c083015260e09091015292915050565b60808152600061247e608083018761235a565b8281036020840152612490818761239e565b604084019590955250506060015292915050565b8015158114611f1a57600080fd5b600080600080600060a086880312156124ca57600080fd5b85359450602086013593506040860135925060608601356124ea816124a4565b949793965091946080013592915050565b60208082526018908201527f4f6e6c79206f776e65722063616e2063616c6c20746869730000000000000000604082015260600190565b600181811c9082168061254657607f821691505b602082108103610b2457634e487b7160e01b600052602260045260246000fd5b601f82111561130c57600081815260208120601f850160051c8101602086101561258d5750805b601f850160051c820191505b818110156125ac57828155600101612599565b505050505050565b815167ffffffffffffffff8111156125ce576125ce6120cf565b6125e2816125dc8454612532565b84612566565b602080601f83116001811461261757600084156125ff5750858301515b600019600386901b1c1916600185901b1785556125ac565b600085815260208120601f198616915b8281101561264657888601518255948401946001909101908401612627565b50858210156126645787850151600019600388901b60f8161c191681555b5050505050600190811b01905550565b6040815260006126876040830185612213565b905060018060a01b03831660208301529392505050565b634e487b7160e01b600052601160045260246000fd5b6000600182016126c6576126c661269e565b5060010190565b818103818111156126e0576126e061269e565b92915050565b80820281158282048414176126e0576126e061269e565b60008261271a57634e487b7160e01b600052601260045260246000fd5b500490565b634e487b7160e01b600052603260045260246000fd5b60006020828403121561274757600080fd5b815161205b816124a4565b808201808211156126e0576126e061269e56fea2646970667358221220e7af9367dca6da33f23648426a0d36c021c61cddce2e7d79a99ad9a831f2a73a64736f6c63430008140033",
  "linkReferences": {},
  "deployedLinkReferences": {}
}