{
	"data": {
		"bytecode": {
			"linkReferences": {},
			"object": "6080604052348015600e575f5ffd5b50335f5f6101000a81548173ffffffffffffffffffffffffffffffffffffffff021916908373ffffffffffffffffffffffffffffffffffffffff1602179055506117588061005b5f395ff3fe60806040526004361061009b575f3560e01c806387c1ed121161006357806387c1ed121461013f5780638da5cb5b1461015b5780639d76ea5814610185578063e86790eb146101af578063ff332ab7146101d9578063ffdeb903146102085761009b565b806305b1137b1461009f578063280da6fa146100bb5780632d296bf1146100d15780635ed9ebfc146100ed5780637ad3def214610117575b5f5ffd5b6100b960048036038101906100b49190610dee565b610230565b005b3480156100c6575f5ffd5b506100cf610320565b005b6100eb60048036038101906100e69190610e2c565b61056e565b005b3480156100f8575f5ffd5b506101016107ec565b60405161010e9190610e66565b60405180910390f35b348015610122575f5ffd5b5061013d60048036038101906101389190610eba565b6107f2565b005b61015960048036038101906101549190610e2c565b6108c3565b005b348015610166575f5ffd5b5061016f6109d2565b60405161017c9190610ef4565b60405180910390f35b348015610190575f5ffd5b506101996109f6565b6040516101a69190610ef4565b60405180910390f35b3480156101ba575f5ffd5b506101c3610a1b565b6040516101d09190610e66565b60405180910390f35b3480156101e4575f5ffd5b506101ed610a21565b6040516101ff96959493929190610f7d565b60405180910390f35b348015610213575f5ffd5b5061022e60048036038101906102299190610e2c565b610c4c565b005b80341015610273576040517f08c379a000000000000000000000000000000000000000000000000000000000815260040161026a90611034565b60405180910390fd5b5f8273ffffffffffffffffffffffffffffffffffffffff16826040516102989061107f565b5f6040518083038185875af1925050503d805f81146102d2576040519150601f19603f3d011682016040523d82523d5f602084013e6102d7565b606091505b505090508061031b576040517f08c379a0000000000000000000000000000000000000000000000000000000008152600401610312906110dd565b60405180910390fd5b505050565b5f5f9054906101000a900473ffffffffffffffffffffffffffffffffffffffff1673ffffffffffffffffffffffffffffffffffffffff163373ffffffffffffffffffffffffffffffffffffffff16146103ae576040517f08c379a00000000000000000000000000000000000000000000000000000000081526004016103a59061116b565b60405180910390fd5b5f60015f9054906101000a900473ffffffffffffffffffffffffffffffffffffffff1690505f8173ffffffffffffffffffffffffffffffffffffffff166370a08231306040518263ffffffff1660e01b815260040161040d9190610ef4565b602060405180830381865afa158015610428573d5f5f3e3d5ffd5b505050506040513d601f19601f8201168201806040525081019061044c919061119d565b90505f8111610490576040517f08c379a000000000000000000000000000000000000000000000000000000000815260040161048790611212565b60405180910390fd5b8173ffffffffffffffffffffffffffffffffffffffff1663a9059cbb5f5f9054906101000a900473ffffffffffffffffffffffffffffffffffffffff16836040518363ffffffff1660e01b81526004016104eb929190611230565b6020604051808303815f875af1158015610507573d5f5f3e3d5ffd5b505050506040513d601f19601f8201168201806040525081019061052b919061128c565b61056a576040517f08c379a000000000000000000000000000000000000000000000000000000000815260040161056190611301565b60405180910390fd5b5050565b61057a81600254610ce4565b34146105bb576040517f08c379a00000000000000000000000000000000000000000000000000000000081526004016105b290611369565b60405180910390fd5b5f60015f9054906101000a900473ffffffffffffffffffffffffffffffffffffffff1690505f670de0b6b3a7640000836105f591906113b4565b90508173ffffffffffffffffffffffffffffffffffffffff166370a08231306040518263ffffffff1660e01b81526004016106309190610ef4565b602060405180830381865afa15801561064b573d5f5f3e3d5ffd5b505050506040513d601f19601f8201168201806040525081019061066f919061119d565b8111156106b1576040517f08c379a00000000000000000000000000000000000000000000000000000000081526004016106a89061143f565b60405180910390fd5b8173ffffffffffffffffffffffffffffffffffffffff1663a9059cbb33836040518363ffffffff1660e01b81526004016106ec929190611230565b6020604051808303815f875af1158015610708573d5f5f3e3d5ffd5b505050506040513d601f19601f8201168201806040525081019061072c919061128c565b61076b576040517f08c379a000000000000000000000000000000000000000000000000000000000815260040161076290611301565b60405180910390fd5b5f5f9054906101000a900473ffffffffffffffffffffffffffffffffffffffff1673ffffffffffffffffffffffffffffffffffffffff166108fc3490811502906040515f60405180830381858888f193505050501580156107ce573d5f5f3e3d5ffd5b508260035f8282546107e0919061145d565b92505081905550505050565b60035481565b5f5f9054906101000a900473ffffffffffffffffffffffffffffffffffffffff1673ffffffffffffffffffffffffffffffffffffffff163373ffffffffffffffffffffffffffffffffffffffff1614610880576040517f08c379a00000000000000000000000000000000000000000000000000000000081526004016108779061116b565b60405180910390fd5b8060015f6101000a81548173ffffffffffffffffffffffffffffffffffffffff021916908373ffffffffffffffffffffffffffffffffffffffff16021790555050565b80341015610906576040517f08c379a00000000000000000000000000000000000000000000000000000000081526004016108fd90611034565b60405180910390fd5b5f5f5f9054906101000a900473ffffffffffffffffffffffffffffffffffffffff1673ffffffffffffffffffffffffffffffffffffffff163460405161094b9061107f565b5f6040518083038185875af1925050503d805f8114610985576040519150601f19603f3d011682016040523d82523d5f602084013e61098a565b606091505b50509050806109ce576040517f08c379a00000000000000000000000000000000000000000000000000000000081526004016109c5906114da565b60405180910390fd5b5050565b5f5f9054906101000a900473ffffffffffffffffffffffffffffffffffffffff1681565b60015f9054906101000a900473ffffffffffffffffffffffffffffffffffffffff1681565b60025481565b6060805f5f5f5f5f60015f9054906101000a900473ffffffffffffffffffffffffffffffffffffffff1690508073ffffffffffffffffffffffffffffffffffffffff166306fdde036040518163ffffffff1660e01b81526004015f60405180830381865afa158015610a95573d5f5f3e3d5ffd5b505050506040513d5f823e3d601f19601f82011682018060405250810190610abd9190611616565b8173ffffffffffffffffffffffffffffffffffffffff166395d89b416040518163ffffffff1660e01b81526004015f60405180830381865afa158015610b05573d5f5f3e3d5ffd5b505050506040513d5f823e3d601f19601f82011682018060405250810190610b2d9190611616565b8273ffffffffffffffffffffffffffffffffffffffff166370a08231306040518263ffffffff1660e01b8152600401610b669190610ef4565b602060405180830381865afa158015610b81573d5f5f3e3d5ffd5b505050506040513d601f19601f82011682018060405250810190610ba5919061119d565b8373ffffffffffffffffffffffffffffffffffffffff166318160ddd6040518163ffffffff1660e01b8152600401602060405180830381865afa158015610bee573d5f5f3e3d5ffd5b505050506040513d601f19601f82011682018060405250810190610c12919061119d565b60025460015f9054906101000a900473ffffffffffffffffffffffffffffffffffffffff1696509650965096509650965050909192939495565b5f5f9054906101000a900473ffffffffffffffffffffffffffffffffffffffff1673ffffffffffffffffffffffffffffffffffffffff163373ffffffffffffffffffffffffffffffffffffffff1614610cda576040517f08c379a0000000000000000000000000000000000000000000000000000000008152600401610cd19061116b565b60405180910390fd5b8060028190555050565b5f5f821480610d0b575082828385610cfc91906113b4565b925082610d09919061168a565b145b610d4a576040517f08c379a0000000000000000000000000000000000000000000000000000000008152600401610d4190611704565b60405180910390fd5b92915050565b5f604051905090565b5f5ffd5b5f5ffd5b5f73ffffffffffffffffffffffffffffffffffffffff82169050919050565b5f610d8a82610d61565b9050919050565b610d9a81610d80565b8114610da4575f5ffd5b50565b5f81359050610db581610d91565b92915050565b5f819050919050565b610dcd81610dbb565b8114610dd7575f5ffd5b50565b5f81359050610de881610dc4565b92915050565b5f5f60408385031215610e0457610e03610d59565b5b5f610e1185828601610da7565b9250506020610e2285828601610dda565b9150509250929050565b5f60208284031215610e4157610e40610d59565b5b5f610e4e84828501610dda565b91505092915050565b610e6081610dbb565b82525050565b5f602082019050610e795f830184610e57565b92915050565b5f610e8982610d61565b9050919050565b610e9981610e7f565b8114610ea3575f5ffd5b50565b5f81359050610eb481610e90565b92915050565b5f60208284031215610ecf57610ece610d59565b5b5f610edc84828501610ea6565b91505092915050565b610eee81610e7f565b82525050565b5f602082019050610f075f830184610ee5565b92915050565b5f81519050919050565b5f82825260208201905092915050565b8281835e5f83830152505050565b5f601f19601f8301169050919050565b5f610f4f82610f0d565b610f598185610f17565b9350610f69818560208601610f27565b610f7281610f35565b840191505092915050565b5f60c0820190508181035f830152610f958189610f45565b90508181036020830152610fa98188610f45565b9050610fb86040830187610e57565b610fc56060830186610e57565b610fd26080830185610e57565b610fdf60a0830184610ee5565b979650505050505050565b7f496e73756666696369656e742045746865722073656e740000000000000000005f82015250565b5f61101e601783610f17565b915061102982610fea565b602082019050919050565b5f6020820190508181035f83015261104b81611012565b9050919050565b5f81905092915050565b50565b5f61106a5f83611052565b91506110758261105c565b5f82019050919050565b5f6110898261105f565b9150819050919050565b7f5472616e7366657220746f20726563697069656e74206661696c6564000000005f82015250565b5f6110c7601c83610f17565b91506110d282611093565b602082019050919050565b5f6020820190508181035f8301526110f4816110bb565b9050919050565b7f4f6e6c7920636f6e7472616374206f776e65722063616e20706572666f726d205f8201527f7468697320616374696f6e000000000000000000000000000000000000000000602082015250565b5f611155602b83610f17565b9150611160826110fb565b604082019050919050565b5f6020820190508181035f83015261118281611149565b9050919050565b5f8151905061119781610dc4565b92915050565b5f602082840312156111b2576111b1610d59565b5b5f6111bf84828501611189565b91505092915050565b7f4e6f20746f6b656e7320746f20776974686472617700000000000000000000005f82015250565b5f6111fc601583610f17565b9150611207826111c8565b602082019050919050565b5f6020820190508181035f830152611229816111f0565b9050919050565b5f6040820190506112435f830185610ee5565b6112506020830184610e57565b9392505050565b5f8115159050919050565b61126b81611257565b8114611275575f5ffd5b50565b5f8151905061128681611262565b92915050565b5f602082840312156112a1576112a0610d59565b5b5f6112ae84828501611278565b91505092915050565b7f546f6b656e207472616e73666572206661696c656400000000000000000000005f82015250565b5f6112eb601583610f17565b91506112f6826112b7565b602082019050919050565b5f6020820190508181035f830152611318816112df565b9050919050565b7f496e636f72726563742045746865722073656e740000000000000000000000005f82015250565b5f611353601483610f17565b915061135e8261131f565b602082019050919050565b5f6020820190508181035f83015261138081611347565b9050919050565b7f4e487b71000000000000000000000000000000000000000000000000000000005f52601160045260245ffd5b5f6113be82610dbb565b91506113c983610dbb565b92508282026113d781610dbb565b915082820484148315176113ee576113ed611387565b5b5092915050565b7f4e6f7420656e6f75676820746f6b656e7320696e20636f6e74726163740000005f82015250565b5f611429601d83610f17565b9150611434826113f5565b602082019050919050565b5f6020820190508181035f8301526114568161141d565b9050919050565b5f61146782610dbb565b915061147283610dbb565b925082820190508082111561148a57611489611387565b5b92915050565b7f5472616e7366657220746f206f776e6572206661696c656400000000000000005f82015250565b5f6114c4601883610f17565b91506114cf82611490565b602082019050919050565b5f6020820190508181035f8301526114f1816114b8565b9050919050565b5f5ffd5b5f5ffd5b7f4e487b71000000000000000000000000000000000000000000000000000000005f52604160045260245ffd5b61153682610f35565b810181811067ffffffffffffffff8211171561155557611554611500565b5b80604052505050565b5f611567610d50565b9050611573828261152d565b919050565b5f67ffffffffffffffff82111561159257611591611500565b5b61159b82610f35565b9050602081019050919050565b5f6115ba6115b584611578565b61155e565b9050828152602081018484840111156115d6576115d56114fc565b5b6115e1848285610f27565b509392505050565b5f82601f8301126115fd576115fc6114f8565b5b815161160d8482602086016115a8565b91505092915050565b5f6020828403121561162b5761162a610d59565b5b5f82015167ffffffffffffffff81111561164857611647610d5d565b5b611654848285016115e9565b91505092915050565b7f4e487b71000000000000000000000000000000000000000000000000000000005f52601260045260245ffd5b5f61169482610dbb565b915061169f83610dbb565b9250826116af576116ae61165d565b5b828204905092915050565b7f4d756c7469706c69636174696f6e206f766572666c6f770000000000000000005f82015250565b5f6116ee601783610f17565b91506116f9826116ba565b602082019050919050565b5f6020820190508181035f83015261171b816116e2565b905091905056fea264697066735822122006d440cabfd15fda5e8f5b5516ff294b700a761968c01c573c96f1e6a356973d64736f6c634300081e0033",
			"opcodes": "PUSH1 0x80 PUSH1 0x40 MSTORE CALLVALUE DUP1 ISZERO PUSH1 0xE JUMPI PUSH0 PUSH0 REVERT JUMPDEST POP CALLER PUSH0 PUSH0 PUSH2 0x100 EXP DUP2 SLOAD DUP2 PUSH20 0xFFFFFFFFFFFFFFFFFFFFFFFFFFFFFFFFFFFFFFFF MUL NOT AND SWAP1 DUP4 PUSH20 0xFFFFFFFFFFFFFFFFFFFFFFFFFFFFFFFFFFFFFFFF AND MUL OR SWAP1 SSTORE POP PUSH2 0x1758 DUP1 PUSH2 0x5B PUSH0 CODECOPY PUSH0 RETURN INVALID PUSH1 0x80 PUSH1 0x40 MSTORE PUSH1 0x4 CALLDATASIZE LT PUSH2 0x9B JUMPI PUSH0 CALLDATALOAD PUSH1 0xE0 SHR DUP1 PUSH4 0x87C1ED12 GT PUSH2 0x63 JUMPI DUP1 PUSH4 0x87C1ED12 EQ PUSH2 0x13F JUMPI DUP1 PUSH4 0x8DA5CB5B EQ PUSH2 0x15B JUMPI DUP1 PUSH4 0x9D76EA58 EQ PUSH2 0x185 JUMPI DUP1 PUSH4 0xE86790EB EQ PUSH2 0x1AF JUMPI DUP1 PUSH4 0xFF332AB7 EQ PUSH2 0x1D9 JUMPI DUP1 PUSH4 0xFFDEB903 EQ PUSH2 0x208 JUMPI PUSH2 0x9B JUMP JUMPDEST DUP1 PUSH4 0x5B1137B EQ PUSH2 0x9F JUMPI DUP1 PUSH4 0x280DA6FA EQ PUSH2 0xBB JUMPI DUP1 PUSH4 0x2D296BF1 EQ PUSH2 0xD1 JUMPI DUP1 PUSH4 0x5ED9EBFC EQ PUSH2 0xED JUMPI DUP1 PUSH4 0x7AD3DEF2 EQ PUSH2 0x117 JUMPI JUMPDEST PUSH0 PUSH0 REVERT JUMPDEST PUSH2 0xB9 PUSH1 0x4 DUP1 CALLDATASIZE SUB DUP2 ADD SWAP1 PUSH2 0xB4 SWAP2 SWAP1 PUSH2 0xDEE JUMP JUMPDEST PUSH2 0x230 JUMP JUMPDEST STOP JUMPDEST CALLVALUE DUP1 ISZERO PUSH2 0xC6 JUMPI PUSH0 PUSH0 REVERT JUMPDEST POP PUSH2 0xCF PUSH2 0x320 JUMP JUMPDEST STOP JUMPDEST PUSH2 0xEB PUSH1 0x4 DUP1 CALLDATASIZE SUB DUP2 ADD SWAP1 PUSH2 0xE6 SWAP2 SWAP1 PUSH2 0xE2C JUMP JUMPDEST PUSH2 0x56E JUMP JUMPDEST STOP JUMPDEST CALLVALUE DUP1 ISZERO PUSH2 0xF8 JUMPI PUSH0 PUSH0 REVERT JUMPDEST POP PUSH2 0x101 PUSH2 0x7EC JUMP JUMPDEST PUSH1 0x40 MLOAD PUSH2 0x10E SWAP2 SWAP1 PUSH2 0xE66 JUMP JUMPDEST PUSH1 0x40 MLOAD DUP1 SWAP2 SUB SWAP1 RETURN JUMPDEST CALLVALUE DUP1 ISZERO PUSH2 0x122 JUMPI PUSH0 PUSH0 REVERT JUMPDEST POP PUSH2 0x13D PUSH1 0x4 DUP1 CALLDATASIZE SUB DUP2 ADD SWAP1 PUSH2 0x138 SWAP2 SWAP1 PUSH2 0xEBA JUMP JUMPDEST PUSH2 0x7F2 JUMP JUMPDEST STOP JUMPDEST PUSH2 0x159 PUSH1 0x4 DUP1 CALLDATASIZE SUB DUP2 ADD SWAP1 PUSH2 0x154 SWAP2 SWAP1 PUSH2 0xE2C JUMP JUMPDEST PUSH2 0x8C3 JUMP JUMPDEST STOP JUMPDEST CALLVALUE DUP1 ISZERO PUSH2 0x166 JUMPI PUSH0 PUSH0 REVERT JUMPDEST POP PUSH2 0x16F PUSH2 0x9D2 JUMP JUMPDEST PUSH1 0x40 MLOAD PUSH2 0x17C SWAP2 SWAP1 PUSH2 0xEF4 JUMP JUMPDEST PUSH1 0x40 MLOAD DUP1 SWAP2 SUB SWAP1 RETURN JUMPDEST CALLVALUE DUP1 ISZERO PUSH2 0x190 JUMPI PUSH0 PUSH0 REVERT JUMPDEST POP PUSH2 0x199 PUSH2 0x9F6 JUMP JUMPDEST PUSH1 0x40 MLOAD PUSH2 0x1A6 SWAP2 SWAP1 PUSH2 0xEF4 JUMP JUMPDEST PUSH1 0x40 MLOAD DUP1 SWAP2 SUB SWAP1 RETURN JUMPDEST CALLVALUE DUP1 ISZERO PUSH2 0x1BA JUMPI PUSH0 PUSH0 REVERT JUMPDEST POP PUSH2 0x1C3 PUSH2 0xA1B JUMP JUMPDEST PUSH1 0x40 MLOAD PUSH2 0x1D0 SWAP2 SWAP1 PUSH2 0xE66 JUMP JUMPDEST PUSH1 0x40 MLOAD DUP1 SWAP2 SUB SWAP1 RETURN JUMPDEST CALLVALUE DUP1 ISZERO PUSH2 0x1E4 JUMPI PUSH0 PUSH0 REVERT JUMPDEST POP PUSH2 0x1ED PUSH2 0xA21 JUMP JUMPDEST PUSH1 0x40 MLOAD PUSH2 0x1FF SWAP7 SWAP6 SWAP5 SWAP4 SWAP3 SWAP2 SWAP1 PUSH2 0xF7D JUMP JUMPDEST PUSH1 0x40 MLOAD DUP1 SWAP2 SUB SWAP1 RETURN JUMPDEST CALLVALUE DUP1 ISZERO PUSH2 0x213 JUMPI PUSH0 PUSH0 REVERT JUMPDEST POP PUSH2 0x22E PUSH1 0x4 DUP1 CALLDATASIZE SUB DUP2 ADD SWAP1 PUSH2 0x229 SWAP2 SWAP1 PUSH2 0xE2C JUMP JUMPDEST PUSH2 0xC4C JUMP JUMPDEST STOP JUMPDEST DUP1 CALLVALUE LT ISZERO PUSH2 0x273 JUMPI PUSH1 0x40 MLOAD PUSH32 0x8C379A000000000000000000000000000000000000000000000000000000000 DUP2 MSTORE PUSH1 0x4 ADD PUSH2 0x26A SWAP1 PUSH2 0x1034 JUMP JUMPDEST PUSH1 0x40 MLOAD DUP1 SWAP2 SUB SWAP1 REVERT JUMPDEST PUSH0 DUP3 PUSH20 0xFFFFFFFFFFFFFFFFFFFFFFFFFFFFFFFFFFFFFFFF AND DUP3 PUSH1 0x40 MLOAD PUSH2 0x298 SWAP1 PUSH2 0x107F JUMP JUMPDEST PUSH0 PUSH1 0x40 MLOAD DUP1 DUP4 SUB DUP2 DUP6 DUP8 GAS CALL SWAP3 POP POP POP RETURNDATASIZE DUP1 PUSH0 DUP2 EQ PUSH2 0x2D2 JUMPI PUSH1 0x40 MLOAD SWAP2 POP PUSH1 0x1F NOT PUSH1 0x3F RETURNDATASIZE ADD AND DUP3 ADD PUSH1 0x40 MSTORE RETURNDATASIZE DUP3 MSTORE RETURNDATASIZE PUSH0 PUSH1 0x20 DUP5 ADD RETURNDATACOPY PUSH2 0x2D7 JUMP JUMPDEST PUSH1 0x60 SWAP2 POP JUMPDEST POP POP SWAP1 POP DUP1 PUSH2 0x31B JUMPI PUSH1 0x40 MLOAD PUSH32 0x8C379A000000000000000000000000000000000000000000000000000000000 DUP2 MSTORE PUSH1 0x4 ADD PUSH2 0x312 SWAP1 PUSH2 0x10DD JUMP JUMPDEST PUSH1 0x40 MLOAD DUP1 SWAP2 SUB SWAP1 REVERT JUMPDEST POP POP POP JUMP JUMPDEST PUSH0 PUSH0 SWAP1 SLOAD SWAP1 PUSH2 0x100 EXP SWAP1 DIV PUSH20 0xFFFFFFFFFFFFFFFFFFFFFFFFFFFFFFFFFFFFFFFF AND PUSH20 0xFFFFFFFFFFFFFFFFFFFFFFFFFFFFFFFFFFFFFFFF AND CALLER PUSH20 0xFFFFFFFFFFFFFFFFFFFFFFFFFFFFFFFFFFFFFFFF AND EQ PUSH2 0x3AE JUMPI PUSH1 0x40 MLOAD PUSH32 0x8C379A000000000000000000000000000000000000000000000000000000000 DUP2 MSTORE PUSH1 0x4 ADD PUSH2 0x3A5 SWAP1 PUSH2 0x116B JUMP JUMPDEST PUSH1 0x40 MLOAD DUP1 SWAP2 SUB SWAP1 REVERT JUMPDEST PUSH0 PUSH1 0x1 PUSH0 SWAP1 SLOAD SWAP1 PUSH2 0x100 EXP SWAP1 DIV PUSH20 0xFFFFFFFFFFFFFFFFFFFFFFFFFFFFFFFFFFFFFFFF AND SWAP1 POP PUSH0 DUP2 PUSH20 0xFFFFFFFFFFFFFFFFFFFFFFFFFFFFFFFFFFFFFFFF AND PUSH4 0x70A08231 ADDRESS PUSH1 0x40 MLOAD DUP3 PUSH4 0xFFFFFFFF AND PUSH1 0xE0 SHL DUP2 MSTORE PUSH1 0x4 ADD PUSH2 0x40D SWAP2 SWAP1 PUSH2 0xEF4 JUMP JUMPDEST PUSH1 0x20 PUSH1 0x40 MLOAD DUP1 DUP4 SUB DUP2 DUP7 GAS STATICCALL ISZERO DUP1 ISZERO PUSH2 0x428 JUMPI RETURNDATASIZE PUSH0 PUSH0 RETURNDATACOPY RETURNDATASIZE PUSH0 REVERT JUMPDEST POP POP POP POP PUSH1 0x40 MLOAD RETURNDATASIZE PUSH1 0x1F NOT PUSH1 0x1F DUP3 ADD AND DUP3 ADD DUP1 PUSH1 0x40 MSTORE POP DUP2 ADD SWAP1 PUSH2 0x44C SWAP2 SWAP1 PUSH2 0x119D JUMP JUMPDEST SWAP1 POP PUSH0 DUP2 GT PUSH2 0x490 JUMPI PUSH1 0x40 MLOAD PUSH32 0x8C379A000000000000000000000000000000000000000000000000000000000 DUP2 MSTORE PUSH1 0x4 ADD PUSH2 0x487 SWAP1 PUSH2 0x1212 JUMP JUMPDEST PUSH1 0x40 MLOAD DUP1 SWAP2 SUB SWAP1 REVERT JUMPDEST DUP2 PUSH20 0xFFFFFFFFFFFFFFFFFFFFFFFFFFFFFFFFFFFFFFFF AND PUSH4 0xA9059CBB PUSH0 PUSH0 SWAP1 SLOAD SWAP1 PUSH2 0x100 EXP SWAP1 DIV PUSH20 0xFFFFFFFFFFFFFFFFFFFFFFFFFFFFFFFFFFFFFFFF AND DUP4 PUSH1 0x40 MLOAD DUP4 PUSH4 0xFFFFFFFF AND PUSH1 0xE0 SHL DUP2 MSTORE PUSH1 0x4 ADD PUSH2 0x4EB SWAP3 SWAP2 SWAP1 PUSH2 0x1230 JUMP JUMPDEST PUSH1 0x20 PUSH1 0x40 MLOAD DUP1 DUP4 SUB DUP2 PUSH0 DUP8 GAS CALL ISZERO DUP1 ISZERO PUSH2 0x507 JUMPI RETURNDATASIZE PUSH0 PUSH0 RETURNDATACOPY RETURNDATASIZE PUSH0 REVERT JUMPDEST POP POP POP POP PUSH1 0x40 MLOAD RETURNDATASIZE PUSH1 0x1F NOT PUSH1 0x1F DUP3 ADD AND DUP3 ADD DUP1 PUSH1 0x40 MSTORE POP DUP2 ADD SWAP1 PUSH2 0x52B SWAP2 SWAP1 PUSH2 0x128C JUMP JUMPDEST PUSH2 0x56A JUMPI PUSH1 0x40 MLOAD PUSH32 0x8C379A000000000000000000000000000000000000000000000000000000000 DUP2 MSTORE PUSH1 0x4 ADD PUSH2 0x561 SWAP1 PUSH2 0x1301 JUMP JUMPDEST PUSH1 0x40 MLOAD DUP1 SWAP2 SUB SWAP1 REVERT JUMPDEST POP POP JUMP JUMPDEST PUSH2 0x57A DUP2 PUSH1 0x2 SLOAD PUSH2 0xCE4 JUMP JUMPDEST CALLVALUE EQ PUSH2 0x5BB JUMPI PUSH1 0x40 MLOAD PUSH32 0x8C379A000000000000000000000000000000000000000000000000000000000 DUP2 MSTORE PUSH1 0x4 ADD PUSH2 0x5B2 SWAP1 PUSH2 0x1369 JUMP JUMPDEST PUSH1 0x40 MLOAD DUP1 SWAP2 SUB SWAP1 REVERT JUMPDEST PUSH0 PUSH1 0x1 PUSH0 SWAP1 SLOAD SWAP1 PUSH2 0x100 EXP SWAP1 DIV PUSH20 0xFFFFFFFFFFFFFFFFFFFFFFFFFFFFFFFFFFFFFFFF AND SWAP1 POP PUSH0 PUSH8 0xDE0B6B3A7640000 DUP4 PUSH2 0x5F5 SWAP2 SWAP1 PUSH2 0x13B4 JUMP JUMPDEST SWAP1 POP DUP2 PUSH20 0xFFFFFFFFFFFFFFFFFFFFFFFFFFFFFFFFFFFFFFFF AND PUSH4 0x70A08231 ADDRESS PUSH1 0x40 MLOAD DUP3 PUSH4 0xFFFFFFFF AND PUSH1 0xE0 SHL DUP2 MSTORE PUSH1 0x4 ADD PUSH2 0x630 SWAP2 SWAP1 PUSH2 0xEF4 JUMP JUMPDEST PUSH1 0x20 PUSH1 0x40 MLOAD DUP1 DUP4 SUB DUP2 DUP7 GAS STATICCALL ISZERO DUP1 ISZERO PUSH2 0x64B JUMPI RETURNDATASIZE PUSH0 PUSH0 RETURNDATACOPY RETURNDATASIZE PUSH0 REVERT JUMPDEST POP POP POP POP PUSH1 0x40 MLOAD RETURNDATASIZE PUSH1 0x1F NOT PUSH1 0x1F DUP3 ADD AND DUP3 ADD DUP1 PUSH1 0x40 MSTORE POP DUP2 ADD SWAP1 PUSH2 0x66F SWAP2 SWAP1 PUSH2 0x119D JUMP JUMPDEST DUP2 GT ISZERO PUSH2 0x6B1 JUMPI PUSH1 0x40 MLOAD PUSH32 0x8C379A000000000000000000000000000000000000000000000000000000000 DUP2 MSTORE PUSH1 0x4 ADD PUSH2 0x6A8 SWAP1 PUSH2 0x143F JUMP JUMPDEST PUSH1 0x40 MLOAD DUP1 SWAP2 SUB SWAP1 REVERT JUMPDEST DUP2 PUSH20 0xFFFFFFFFFFFFFFFFFFFFFFFFFFFFFFFFFFFFFFFF AND PUSH4 0xA9059CBB CALLER DUP4 PUSH1 0x40 MLOAD DUP4 PUSH4 0xFFFFFFFF AND PUSH1 0xE0 SHL DUP2 MSTORE PUSH1 0x4 ADD PUSH2 0x6EC SWAP3 SWAP2 SWAP1 PUSH2 0x1230 JUMP JUMPDEST PUSH1 0x20 PUSH1 0x40 MLOAD DUP1 DUP4 SUB DUP2 PUSH0 DUP8 GAS CALL ISZERO DUP1 ISZERO PUSH2 0x708 JUMPI RETURNDATASIZE PUSH0 PUSH0 RETURNDATACOPY RETURNDATASIZE PUSH0 REVERT JUMPDEST POP POP POP POP PUSH1 0x40 MLOAD RETURNDATASIZE PUSH1 0x1F NOT PUSH1 0x1F DUP3 ADD AND DUP3 ADD DUP1 PUSH1 0x40 MSTORE POP DUP2 ADD SWAP1 PUSH2 0x72C SWAP2 SWAP1 PUSH2 0x128C JUMP JUMPDEST PUSH2 0x76B JUMPI PUSH1 0x40 MLOAD PUSH32 0x8C379A000000000000000000000000000000000000000000000000000000000 DUP2 MSTORE PUSH1 0x4 ADD PUSH2 0x762 SWAP1 PUSH2 0x1301 JUMP JUMPDEST PUSH1 0x40 MLOAD DUP1 SWAP2 SUB SWAP1 REVERT JUMPDEST PUSH0 PUSH0 SWAP1 SLOAD SWAP1 PUSH2 0x100 EXP SWAP1 DIV PUSH20 0xFFFFFFFFFFFFFFFFFFFFFFFFFFFFFFFFFFFFFFFF AND PUSH20 0xFFFFFFFFFFFFFFFFFFFFFFFFFFFFFFFFFFFFFFFF AND PUSH2 0x8FC CALLVALUE SWAP1 DUP2 ISZERO MUL SWAP1 PUSH1 0x40 MLOAD PUSH0 PUSH1 0x40 MLOAD DUP1 DUP4 SUB DUP2 DUP6 DUP9 DUP9 CALL SWAP4 POP POP POP POP ISZERO DUP1 ISZERO PUSH2 0x7CE JUMPI RETURNDATASIZE PUSH0 PUSH0 RETURNDATACOPY RETURNDATASIZE PUSH0 REVERT JUMPDEST POP DUP3 PUSH1 0x3 PUSH0 DUP3 DUP3 SLOAD PUSH2 0x7E0 SWAP2 SWAP1 PUSH2 0x145D JUMP JUMPDEST SWAP3 POP POP DUP2 SWAP1 SSTORE POP POP POP POP JUMP JUMPDEST PUSH1 0x3 SLOAD DUP2 JUMP JUMPDEST PUSH0 PUSH0 SWAP1 SLOAD SWAP1 PUSH2 0x100 EXP SWAP1 DIV PUSH20 0xFFFFFFFFFFFFFFFFFFFFFFFFFFFFFFFFFFFFFFFF AND PUSH20 0xFFFFFFFFFFFFFFFFFFFFFFFFFFFFFFFFFFFFFFFF AND CALLER PUSH20 0xFFFFFFFFFFFFFFFFFFFFFFFFFFFFFFFFFFFFFFFF AND EQ PUSH2 0x880 JUMPI PUSH1 0x40 MLOAD PUSH32 0x8C379A000000000000000000000000000000000000000000000000000000000 DUP2 MSTORE PUSH1 0x4 ADD PUSH2 0x877 SWAP1 PUSH2 0x116B JUMP JUMPDEST PUSH1 0x40 MLOAD DUP1 SWAP2 SUB SWAP1 REVERT JUMPDEST DUP1 PUSH1 0x1 PUSH0 PUSH2 0x100 EXP DUP2 SLOAD DUP2 PUSH20 0xFFFFFFFFFFFFFFFFFFFFFFFFFFFFFFFFFFFFFFFF MUL NOT AND SWAP1 DUP4 PUSH20 0xFFFFFFFFFFFFFFFFFFFFFFFFFFFFFFFFFFFFFFFF AND MUL OR SWAP1 SSTORE POP POP JUMP JUMPDEST DUP1 CALLVALUE LT ISZERO PUSH2 0x906 JUMPI PUSH1 0x40 MLOAD PUSH32 0x8C379A000000000000000000000000000000000000000000000000000000000 DUP2 MSTORE PUSH1 0x4 ADD PUSH2 0x8FD SWAP1 PUSH2 0x1034 JUMP JUMPDEST PUSH1 0x40 MLOAD DUP1 SWAP2 SUB SWAP1 REVERT JUMPDEST PUSH0 PUSH0 PUSH0 SWAP1 SLOAD SWAP1 PUSH2 0x100 EXP SWAP1 DIV PUSH20 0xFFFFFFFFFFFFFFFFFFFFFFFFFFFFFFFFFFFFFFFF AND PUSH20 0xFFFFFFFFFFFFFFFFFFFFFFFFFFFFFFFFFFFFFFFF AND CALLVALUE PUSH1 0x40 MLOAD PUSH2 0x94B SWAP1 PUSH2 0x107F JUMP JUMPDEST PUSH0 PUSH1 0x40 MLOAD DUP1 DUP4 SUB DUP2 DUP6 DUP8 GAS CALL SWAP3 POP POP POP RETURNDATASIZE DUP1 PUSH0 DUP2 EQ PUSH2 0x985 JUMPI PUSH1 0x40 MLOAD SWAP2 POP PUSH1 0x1F NOT PUSH1 0x3F RETURNDATASIZE ADD AND DUP3 ADD PUSH1 0x40 MSTORE RETURNDATASIZE DUP3 MSTORE RETURNDATASIZE PUSH0 PUSH1 0x20 DUP5 ADD RETURNDATACOPY PUSH2 0x98A JUMP JUMPDEST PUSH1 0x60 SWAP2 POP JUMPDEST POP POP SWAP1 POP DUP1 PUSH2 0x9CE JUMPI PUSH1 0x40 MLOAD PUSH32 0x8C379A000000000000000000000000000000000000000000000000000000000 DUP2 MSTORE PUSH1 0x4 ADD PUSH2 0x9C5 SWAP1 PUSH2 0x14DA JUMP JUMPDEST PUSH1 0x40 MLOAD DUP1 SWAP2 SUB SWAP1 REVERT JUMPDEST POP POP JUMP JUMPDEST PUSH0 PUSH0 SWAP1 SLOAD SWAP1 PUSH2 0x100 EXP SWAP1 DIV PUSH20 0xFFFFFFFFFFFFFFFFFFFFFFFFFFFFFFFFFFFFFFFF AND DUP2 JUMP JUMPDEST PUSH1 0x1 PUSH0 SWAP1 SLOAD SWAP1 PUSH2 0x100 EXP SWAP1 DIV PUSH20 0xFFFFFFFFFFFFFFFFFFFFFFFFFFFFFFFFFFFFFFFF AND DUP2 JUMP JUMPDEST PUSH1 0x2 SLOAD DUP2 JUMP JUMPDEST PUSH1 0x60 DUP1 PUSH0 PUSH0 PUSH0 PUSH0 PUSH0 PUSH1 0x1 PUSH0 SWAP1 SLOAD SWAP1 PUSH2 0x100 EXP SWAP1 DIV PUSH20 0xFFFFFFFFFFFFFFFFFFFFFFFFFFFFFFFFFFFFFFFF AND SWAP1 POP DUP1 PUSH20 0xFFFFFFFFFFFFFFFFFFFFFFFFFFFFFFFFFFFFFFFF AND PUSH4 0x6FDDE03 PUSH1 0x40 MLOAD DUP2 PUSH4 0xFFFFFFFF AND PUSH1 0xE0 SHL DUP2 MSTORE PUSH1 0x4 ADD PUSH0 PUSH1 0x40 MLOAD DUP1 DUP4 SUB DUP2 DUP7 GAS STATICCALL ISZERO DUP1 ISZERO PUSH2 0xA95 JUMPI RETURNDATASIZE PUSH0 PUSH0 RETURNDATACOPY RETURNDATASIZE PUSH0 REVERT JUMPDEST POP POP POP POP PUSH1 0x40 MLOAD RETURNDATASIZE PUSH0 DUP3 RETURNDATACOPY RETURNDATASIZE PUSH1 0x1F NOT PUSH1 0x1F DUP3 ADD AND DUP3 ADD DUP1 PUSH1 0x40 MSTORE POP DUP2 ADD SWAP1 PUSH2 0xABD SWAP2 SWAP1 PUSH2 0x1616 JUMP JUMPDEST DUP2 PUSH20 0xFFFFFFFFFFFFFFFFFFFFFFFFFFFFFFFFFFFFFFFF AND PUSH4 0x95D89B41 PUSH1 0x40 MLOAD DUP2 PUSH4 0xFFFFFFFF AND PUSH1 0xE0 SHL DUP2 MSTORE PUSH1 0x4 ADD PUSH0 PUSH1 0x40 MLOAD DUP1 DUP4 SUB DUP2 DUP7 GAS STATICCALL ISZERO DUP1 ISZERO PUSH2 0xB05 JUMPI RETURNDATASIZE PUSH0 PUSH0 RETURNDATACOPY RETURNDATASIZE PUSH0 REVERT JUMPDEST POP POP POP POP PUSH1 0x40 MLOAD RETURNDATASIZE PUSH0 DUP3 RETURNDATACOPY RETURNDATASIZE PUSH1 0x1F NOT PUSH1 0x1F DUP3 ADD AND DUP3 ADD DUP1 PUSH1 0x40 MSTORE POP DUP2 ADD SWAP1 PUSH2 0xB2D SWAP2 SWAP1 PUSH2 0x1616 JUMP JUMPDEST DUP3 PUSH20 0xFFFFFFFFFFFFFFFFFFFFFFFFFFFFFFFFFFFFFFFF AND PUSH4 0x70A08231 ADDRESS PUSH1 0x40 MLOAD DUP3 PUSH4 0xFFFFFFFF AND PUSH1 0xE0 SHL DUP2 MSTORE PUSH1 0x4 ADD PUSH2 0xB66 SWAP2 SWAP1 PUSH2 0xEF4 JUMP JUMPDEST PUSH1 0x20 PUSH1 0x40 MLOAD DUP1 DUP4 SUB DUP2 DUP7 GAS STATICCALL ISZERO DUP1 ISZERO PUSH2 0xB81 JUMPI RETURNDATASIZE PUSH0 PUSH0 RETURNDATACOPY RETURNDATASIZE PUSH0 REVERT JUMPDEST POP POP POP POP PUSH1 0x40 MLOAD RETURNDATASIZE PUSH1 0x1F NOT PUSH1 0x1F DUP3 ADD AND DUP3 ADD DUP1 PUSH1 0x40 MSTORE POP DUP2 ADD SWAP1 PUSH2 0xBA5 SWAP2 SWAP1 PUSH2 0x119D JUMP JUMPDEST DUP4 PUSH20 0xFFFFFFFFFFFFFFFFFFFFFFFFFFFFFFFFFFFFFFFF AND PUSH4 0x18160DDD PUSH1 0x40 MLOAD DUP2 PUSH4 0xFFFFFFFF AND PUSH1 0xE0 SHL DUP2 MSTORE PUSH1 0x4 ADD PUSH1 0x20 PUSH1 0x40 MLOAD DUP1 DUP4 SUB DUP2 DUP7 GAS STATICCALL ISZERO DUP1 ISZERO PUSH2 0xBEE JUMPI RETURNDATASIZE PUSH0 PUSH0 RETURNDATACOPY RETURNDATASIZE PUSH0 REVERT JUMPDEST POP POP POP POP PUSH1 0x40 MLOAD RETURNDATASIZE PUSH1 0x1F NOT PUSH1 0x1F DUP3 ADD AND DUP3 ADD DUP1 PUSH1 0x40 MSTORE POP DUP2 ADD SWAP1 PUSH2 0xC12 SWAP2 SWAP1 PUSH2 0x119D JUMP JUMPDEST PUSH1 0x2 SLOAD PUSH1 0x1 PUSH0 SWAP1 SLOAD SWAP1 PUSH2 0x100 EXP SWAP1 DIV PUSH20 0xFFFFFFFFFFFFFFFFFFFFFFFFFFFFFFFFFFFFFFFF AND SWAP7 POP SWAP7 POP SWAP7 POP SWAP7 POP SWAP7 POP SWAP7 POP POP SWAP1 SWAP2 SWAP3 SWAP4 SWAP5 SWAP6 JUMP JUMPDEST PUSH0 PUSH0 SWAP1 SLOAD SWAP1 PUSH2 0x100 EXP SWAP1 DIV PUSH20 0xFFFFFFFFFFFFFFFFFFFFFFFFFFFFFFFFFFFFFFFF AND PUSH20 0xFFFFFFFFFFFFFFFFFFFFFFFFFFFFFFFFFFFFFFFF AND CALLER PUSH20 0xFFFFFFFFFFFFFFFFFFFFFFFFFFFFFFFFFFFFFFFF AND EQ PUSH2 0xCDA JUMPI PUSH1 0x40 MLOAD PUSH32 0x8C379A000000000000000000000000000000000000000000000000000000000 DUP2 MSTORE PUSH1 0x4 ADD PUSH2 0xCD1 SWAP1 PUSH2 0x116B JUMP JUMPDEST PUSH1 0x40 MLOAD DUP1 SWAP2 SUB SWAP1 REVERT JUMPDEST DUP1 PUSH1 0x2 DUP2 SWAP1 SSTORE POP POP JUMP JUMPDEST PUSH0 PUSH0 DUP3 EQ DUP1 PUSH2 0xD0B JUMPI POP DUP3 DUP3 DUP4 DUP6 PUSH2 0xCFC SWAP2 SWAP1 PUSH2 0x13B4 JUMP JUMPDEST SWAP3 POP DUP3 PUSH2 0xD09 SWAP2 SWAP1 PUSH2 0x168A JUMP JUMPDEST EQ JUMPDEST PUSH2 0xD4A JUMPI PUSH1 0x40 MLOAD PUSH32 0x8C379A000000000000000000000000000000000000000000000000000000000 DUP2 MSTORE PUSH1 0x4 ADD PUSH2 0xD41 SWAP1 PUSH2 0x1704 JUMP JUMPDEST PUSH1 0x40 MLOAD DUP1 SWAP2 SUB SWAP1 REVERT JUMPDEST SWAP3 SWAP2 POP POP JUMP JUMPDEST PUSH0 PUSH1 0x40 MLOAD SWAP1 POP SWAP1 JUMP JUMPDEST PUSH0 PUSH0 REVERT JUMPDEST PUSH0 PUSH0 REVERT JUMPDEST PUSH0 PUSH20 0xFFFFFFFFFFFFFFFFFFFFFFFFFFFFFFFFFFFFFFFF DUP3 AND SWAP1 POP SWAP2 SWAP1 POP JUMP JUMPDEST PUSH0 PUSH2 0xD8A DUP3 PUSH2 0xD61 JUMP JUMPDEST SWAP1 POP SWAP2 SWAP1 POP JUMP JUMPDEST PUSH2 0xD9A DUP2 PUSH2 0xD80 JUMP JUMPDEST DUP2 EQ PUSH2 0xDA4 JUMPI PUSH0 PUSH0 REVERT JUMPDEST POP JUMP JUMPDEST PUSH0 DUP2 CALLDATALOAD SWAP1 POP PUSH2 0xDB5 DUP2 PUSH2 0xD91 JUMP JUMPDEST SWAP3 SWAP2 POP POP JUMP JUMPDEST PUSH0 DUP2 SWAP1 POP SWAP2 SWAP1 POP JUMP JUMPDEST PUSH2 0xDCD DUP2 PUSH2 0xDBB JUMP JUMPDEST DUP2 EQ PUSH2 0xDD7 JUMPI PUSH0 PUSH0 REVERT JUMPDEST POP JUMP JUMPDEST PUSH0 DUP2 CALLDATALOAD SWAP1 POP PUSH2 0xDE8 DUP2 PUSH2 0xDC4 JUMP JUMPDEST SWAP3 SWAP2 POP POP JUMP JUMPDEST PUSH0 PUSH0 PUSH1 0x40 DUP4 DUP6 SUB SLT ISZERO PUSH2 0xE04 JUMPI PUSH2 0xE03 PUSH2 0xD59 JUMP JUMPDEST JUMPDEST PUSH0 PUSH2 0xE11 DUP6 DUP3 DUP7 ADD PUSH2 0xDA7 JUMP JUMPDEST SWAP3 POP POP PUSH1 0x20 PUSH2 0xE22 DUP6 DUP3 DUP7 ADD PUSH2 0xDDA JUMP JUMPDEST SWAP2 POP POP SWAP3 POP SWAP3 SWAP1 POP JUMP JUMPDEST PUSH0 PUSH1 0x20 DUP3 DUP5 SUB SLT ISZERO PUSH2 0xE41 JUMPI PUSH2 0xE40 PUSH2 0xD59 JUMP JUMPDEST JUMPDEST PUSH0 PUSH2 0xE4E DUP5 DUP3 DUP6 ADD PUSH2 0xDDA JUMP JUMPDEST SWAP2 POP POP SWAP3 SWAP2 POP POP JUMP JUMPDEST PUSH2 0xE60 DUP2 PUSH2 0xDBB JUMP JUMPDEST DUP3 MSTORE POP POP JUMP JUMPDEST PUSH0 PUSH1 0x20 DUP3 ADD SWAP1 POP PUSH2 0xE79 PUSH0 DUP4 ADD DUP5 PUSH2 0xE57 JUMP JUMPDEST SWAP3 SWAP2 POP POP JUMP JUMPDEST PUSH0 PUSH2 0xE89 DUP3 PUSH2 0xD61 JUMP JUMPDEST SWAP1 POP SWAP2 SWAP1 POP JUMP JUMPDEST PUSH2 0xE99 DUP2 PUSH2 0xE7F JUMP JUMPDEST DUP2 EQ PUSH2 0xEA3 JUMPI PUSH0 PUSH0 REVERT JUMPDEST POP JUMP JUMPDEST PUSH0 DUP2 CALLDATALOAD SWAP1 POP PUSH2 0xEB4 DUP2 PUSH2 0xE90 JUMP JUMPDEST SWAP3 SWAP2 POP POP JUMP JUMPDEST PUSH0 PUSH1 0x20 DUP3 DUP5 SUB SLT ISZERO PUSH2 0xECF JUMPI PUSH2 0xECE PUSH2 0xD59 JUMP JUMPDEST JUMPDEST PUSH0 PUSH2 0xEDC DUP5 DUP3 DUP6 ADD PUSH2 0xEA6 JUMP JUMPDEST SWAP2 POP POP SWAP3 SWAP2 POP POP JUMP JUMPDEST PUSH2 0xEEE DUP2 PUSH2 0xE7F JUMP JUMPDEST DUP3 MSTORE POP POP JUMP JUMPDEST PUSH0 PUSH1 0x20 DUP3 ADD SWAP1 POP PUSH2 0xF07 PUSH0 DUP4 ADD DUP5 PUSH2 0xEE5 JUMP JUMPDEST SWAP3 SWAP2 POP POP JUMP JUMPDEST PUSH0 DUP2 MLOAD SWAP1 POP SWAP2 SWAP1 POP JUMP JUMPDEST PUSH0 DUP3 DUP3 MSTORE PUSH1 0x20 DUP3 ADD SWAP1 POP SWAP3 SWAP2 POP POP JUMP JUMPDEST DUP3 DUP2 DUP4 MCOPY PUSH0 DUP4 DUP4 ADD MSTORE POP POP POP JUMP JUMPDEST PUSH0 PUSH1 0x1F NOT PUSH1 0x1F DUP4 ADD AND SWAP1 POP SWAP2 SWAP1 POP JUMP JUMPDEST PUSH0 PUSH2 0xF4F DUP3 PUSH2 0xF0D JUMP JUMPDEST PUSH2 0xF59 DUP2 DUP6 PUSH2 0xF17 JUMP JUMPDEST SWAP4 POP PUSH2 0xF69 DUP2 DUP6 PUSH1 0x20 DUP7 ADD PUSH2 0xF27 JUMP JUMPDEST PUSH2 0xF72 DUP2 PUSH2 0xF35 JUMP JUMPDEST DUP5 ADD SWAP2 POP POP SWAP3 SWAP2 POP POP JUMP JUMPDEST PUSH0 PUSH1 0xC0 DUP3 ADD SWAP1 POP DUP2 DUP2 SUB PUSH0 DUP4 ADD MSTORE PUSH2 0xF95 DUP2 DUP10 PUSH2 0xF45 JUMP JUMPDEST SWAP1 POP DUP2 DUP2 SUB PUSH1 0x20 DUP4 ADD MSTORE PUSH2 0xFA9 DUP2 DUP9 PUSH2 0xF45 JUMP JUMPDEST SWAP1 POP PUSH2 0xFB8 PUSH1 0x40 DUP4 ADD DUP8 PUSH2 0xE57 JUMP JUMPDEST PUSH2 0xFC5 PUSH1 0x60 DUP4 ADD DUP7 PUSH2 0xE57 JUMP JUMPDEST PUSH2 0xFD2 PUSH1 0x80 DUP4 ADD DUP6 PUSH2 0xE57 JUMP JUMPDEST PUSH2 0xFDF PUSH1 0xA0 DUP4 ADD DUP5 PUSH2 0xEE5 JUMP JUMPDEST SWAP8 SWAP7 POP POP POP POP POP POP POP JUMP JUMPDEST PUSH32 0x496E73756666696369656E742045746865722073656E74000000000000000000 PUSH0 DUP3 ADD MSTORE POP JUMP JUMPDEST PUSH0 PUSH2 0x101E PUSH1 0x17 DUP4 PUSH2 0xF17 JUMP JUMPDEST SWAP2 POP PUSH2 0x1029 DUP3 PUSH2 0xFEA JUMP JUMPDEST PUSH1 0x20 DUP3 ADD SWAP1 POP SWAP2 SWAP1 POP JUMP JUMPDEST PUSH0 PUSH1 0x20 DUP3 ADD SWAP1 POP DUP2 DUP2 SUB PUSH0 DUP4 ADD MSTORE PUSH2 0x104B DUP2 PUSH2 0x1012 JUMP JUMPDEST SWAP1 POP SWAP2 SWAP1 POP JUMP JUMPDEST PUSH0 DUP2 SWAP1 POP SWAP3 SWAP2 POP POP JUMP JUMPDEST POP JUMP JUMPDEST PUSH0 PUSH2 0x106A PUSH0 DUP4 PUSH2 0x1052 JUMP JUMPDEST SWAP2 POP PUSH2 0x1075 DUP3 PUSH2 0x105C JUMP JUMPDEST PUSH0 DUP3 ADD SWAP1 POP SWAP2 SWAP1 POP JUMP JUMPDEST PUSH0 PUSH2 0x1089 DUP3 PUSH2 0x105F JUMP JUMPDEST SWAP2 POP DUP2 SWAP1 POP SWAP2 SWAP1 POP JUMP JUMPDEST PUSH32 0x5472616E7366657220746F20726563697069656E74206661696C656400000000 PUSH0 DUP3 ADD MSTORE POP JUMP JUMPDEST PUSH0 PUSH2 0x10C7 PUSH1 0x1C DUP4 PUSH2 0xF17 JUMP JUMPDEST SWAP2 POP PUSH2 0x10D2 DUP3 PUSH2 0x1093 JUMP JUMPDEST PUSH1 0x20 DUP3 ADD SWAP1 POP SWAP2 SWAP1 POP JUMP JUMPDEST PUSH0 PUSH1 0x20 DUP3 ADD SWAP1 POP DUP2 DUP2 SUB PUSH0 DUP4 ADD MSTORE PUSH2 0x10F4 DUP2 PUSH2 0x10BB JUMP JUMPDEST SWAP1 POP SWAP2 SWAP1 POP JUMP JUMPDEST PUSH32 0x4F6E6C7920636F6E7472616374206F776E65722063616E20706572666F726D20 PUSH0 DUP3 ADD MSTORE PUSH32 0x7468697320616374696F6E000000000000000000000000000000000000000000 PUSH1 0x20 DUP3 ADD MSTORE POP JUMP JUMPDEST PUSH0 PUSH2 0x1155 PUSH1 0x2B DUP4 PUSH2 0xF17 JUMP JUMPDEST SWAP2 POP PUSH2 0x1160 DUP3 PUSH2 0x10FB JUMP JUMPDEST PUSH1 0x40 DUP3 ADD SWAP1 POP SWAP2 SWAP1 POP JUMP JUMPDEST PUSH0 PUSH1 0x20 DUP3 ADD SWAP1 POP DUP2 DUP2 SUB PUSH0 DUP4 ADD MSTORE PUSH2 0x1182 DUP2 PUSH2 0x1149 JUMP JUMPDEST SWAP1 POP SWAP2 SWAP1 POP JUMP JUMPDEST PUSH0 DUP2 MLOAD SWAP1 POP PUSH2 0x1197 DUP2 PUSH2 0xDC4 JUMP JUMPDEST SWAP3 SWAP2 POP POP JUMP JUMPDEST PUSH0 PUSH1 0x20 DUP3 DUP5 SUB SLT ISZERO PUSH2 0x11B2 JUMPI PUSH2 0x11B1 PUSH2 0xD59 JUMP JUMPDEST JUMPDEST PUSH0 PUSH2 0x11BF DUP5 DUP3 DUP6 ADD PUSH2 0x1189 JUMP JUMPDEST SWAP2 POP POP SWAP3 SWAP2 POP POP JUMP JUMPDEST PUSH32 0x4E6F20746F6B656E7320746F2077697468647261770000000000000000000000 PUSH0 DUP3 ADD MSTORE POP JUMP JUMPDEST PUSH0 PUSH2 0x11FC PUSH1 0x15 DUP4 PUSH2 0xF17 JUMP JUMPDEST SWAP2 POP PUSH2 0x1207 DUP3 PUSH2 0x11C8 JUMP JUMPDEST PUSH1 0x20 DUP3 ADD SWAP1 POP SWAP2 SWAP1 POP JUMP JUMPDEST PUSH0 PUSH1 0x20 DUP3 ADD SWAP1 POP DUP2 DUP2 SUB PUSH0 DUP4 ADD MSTORE PUSH2 0x1229 DUP2 PUSH2 0x11F0 JUMP JUMPDEST SWAP1 POP SWAP2 SWAP1 POP JUMP JUMPDEST PUSH0 PUSH1 0x40 DUP3 ADD SWAP1 POP PUSH2 0x1243 PUSH0 DUP4 ADD DUP6 PUSH2 0xEE5 JUMP JUMPDEST PUSH2 0x1250 PUSH1 0x20 DUP4 ADD DUP5 PUSH2 0xE57 JUMP JUMPDEST SWAP4 SWAP3 POP POP POP JUMP JUMPDEST PUSH0 DUP2 ISZERO ISZERO SWAP1 POP SWAP2 SWAP1 POP JUMP JUMPDEST PUSH2 0x126B DUP2 PUSH2 0x1257 JUMP JUMPDEST DUP2 EQ PUSH2 0x1275 JUMPI PUSH0 PUSH0 REVERT JUMPDEST POP JUMP JUMPDEST PUSH0 DUP2 MLOAD SWAP1 POP PUSH2 0x1286 DUP2 PUSH2 0x1262 JUMP JUMPDEST SWAP3 SWAP2 POP POP JUMP JUMPDEST PUSH0 PUSH1 0x20 DUP3 DUP5 SUB SLT ISZERO PUSH2 0x12A1 JUMPI PUSH2 0x12A0 PUSH2 0xD59 JUMP JUMPDEST JUMPDEST PUSH0 PUSH2 0x12AE DUP5 DUP3 DUP6 ADD PUSH2 0x1278 JUMP JUMPDEST SWAP2 POP POP SWAP3 SWAP2 POP POP JUMP JUMPDEST PUSH32 0x546F6B656E207472616E73666572206661696C65640000000000000000000000 PUSH0 DUP3 ADD MSTORE POP JUMP JUMPDEST PUSH0 PUSH2 0x12EB PUSH1 0x15 DUP4 PUSH2 0xF17 JUMP JUMPDEST SWAP2 POP PUSH2 0x12F6 DUP3 PUSH2 0x12B7 JUMP JUMPDEST PUSH1 0x20 DUP3 ADD SWAP1 POP SWAP2 SWAP1 POP JUMP JUMPDEST PUSH0 PUSH1 0x20 DUP3 ADD SWAP1 POP DUP2 DUP2 SUB PUSH0 DUP4 ADD MSTORE PUSH2 0x1318 DUP2 PUSH2 0x12DF JUMP JUMPDEST SWAP1 POP SWAP2 SWAP1 POP JUMP JUMPDEST PUSH32 0x496E636F72726563742045746865722073656E74000000000000000000000000 PUSH0 DUP3 ADD MSTORE POP JUMP JUMPDEST PUSH0 PUSH2 0x1353 PUSH1 0x14 DUP4 PUSH2 0xF17 JUMP JUMPDEST SWAP2 POP PUSH2 0x135E DUP3 PUSH2 0x131F JUMP JUMPDEST PUSH1 0x20 DUP3 ADD SWAP1 POP SWAP2 SWAP1 POP JUMP JUMPDEST PUSH0 PUSH1 0x20 DUP3 ADD SWAP1 POP DUP2 DUP2 SUB PUSH0 DUP4 ADD MSTORE PUSH2 0x1380 DUP2 PUSH2 0x1347 JUMP JUMPDEST SWAP1 POP SWAP2 SWAP1 POP JUMP JUMPDEST PUSH32 0x4E487B7100000000000000000000000000000000000000000000000000000000 PUSH0 MSTORE PUSH1 0x11 PUSH1 0x4 MSTORE PUSH1 0x24 PUSH0 REVERT JUMPDEST PUSH0 PUSH2 0x13BE DUP3 PUSH2 0xDBB JUMP JUMPDEST SWAP2 POP PUSH2 0x13C9 DUP4 PUSH2 0xDBB JUMP JUMPDEST SWAP3 POP DUP3 DUP3 MUL PUSH2 0x13D7 DUP2 PUSH2 0xDBB JUMP JUMPDEST SWAP2 POP DUP3 DUP3 DIV DUP5 EQ DUP4 ISZERO OR PUSH2 0x13EE JUMPI PUSH2 0x13ED PUSH2 0x1387 JUMP JUMPDEST JUMPDEST POP SWAP3 SWAP2 POP POP JUMP JUMPDEST PUSH32 0x4E6F7420656E6F75676820746F6B656E7320696E20636F6E7472616374000000 PUSH0 DUP3 ADD MSTORE POP JUMP JUMPDEST PUSH0 PUSH2 0x1429 PUSH1 0x1D DUP4 PUSH2 0xF17 JUMP JUMPDEST SWAP2 POP PUSH2 0x1434 DUP3 PUSH2 0x13F5 JUMP JUMPDEST PUSH1 0x20 DUP3 ADD SWAP1 POP SWAP2 SWAP1 POP JUMP JUMPDEST PUSH0 PUSH1 0x20 DUP3 ADD SWAP1 POP DUP2 DUP2 SUB PUSH0 DUP4 ADD MSTORE PUSH2 0x1456 DUP2 PUSH2 0x141D JUMP JUMPDEST SWAP1 POP SWAP2 SWAP1 POP JUMP JUMPDEST PUSH0 PUSH2 0x1467 DUP3 PUSH2 0xDBB JUMP JUMPDEST SWAP2 POP PUSH2 0x1472 DUP4 PUSH2 0xDBB JUMP JUMPDEST SWAP3 POP DUP3 DUP3 ADD SWAP1 POP DUP1 DUP3 GT ISZERO PUSH2 0x148A JUMPI PUSH2 0x1489 PUSH2 0x1387 JUMP JUMPDEST JUMPDEST SWAP3 SWAP2 POP POP JUMP JUMPDEST PUSH32 0x5472616E7366657220746F206F776E6572206661696C65640000000000000000 PUSH0 DUP3 ADD MSTORE POP JUMP JUMPDEST PUSH0 PUSH2 0x14C4 PUSH1 0x18 DUP4 PUSH2 0xF17 JUMP JUMPDEST SWAP2 POP PUSH2 0x14CF DUP3 PUSH2 0x1490 JUMP JUMPDEST PUSH1 0x20 DUP3 ADD SWAP1 POP SWAP2 SWAP1 POP JUMP JUMPDEST PUSH0 PUSH1 0x20 DUP3 ADD SWAP1 POP DUP2 DUP2 SUB PUSH0 DUP4 ADD MSTORE PUSH2 0x14F1 DUP2 PUSH2 0x14B8 JUMP JUMPDEST SWAP1 POP SWAP2 SWAP1 POP JUMP JUMPDEST PUSH0 PUSH0 REVERT JUMPDEST PUSH0 PUSH0 REVERT JUMPDEST PUSH32 0x4E487B7100000000000000000000000000000000000000000000000000000000 PUSH0 MSTORE PUSH1 0x41 PUSH1 0x4 MSTORE PUSH1 0x24 PUSH0 REVERT JUMPDEST PUSH2 0x1536 DUP3 PUSH2 0xF35 JUMP JUMPDEST DUP2 ADD DUP2 DUP2 LT PUSH8 0xFFFFFFFFFFFFFFFF DUP3 GT OR ISZERO PUSH2 0x1555 JUMPI PUSH2 0x1554 PUSH2 0x1500 JUMP JUMPDEST JUMPDEST DUP1 PUSH1 0x40 MSTORE POP POP POP JUMP JUMPDEST PUSH0 PUSH2 0x1567 PUSH2 0xD50 JUMP JUMPDEST SWAP1 POP PUSH2 0x1573 DUP3 DUP3 PUSH2 0x152D JUMP JUMPDEST SWAP2 SWAP1 POP JUMP JUMPDEST PUSH0 PUSH8 0xFFFFFFFFFFFFFFFF DUP3 GT ISZERO PUSH2 0x1592 JUMPI PUSH2 0x1591 PUSH2 0x1500 JUMP JUMPDEST JUMPDEST PUSH2 0x159B DUP3 PUSH2 0xF35 JUMP JUMPDEST SWAP1 POP PUSH1 0x20 DUP2 ADD SWAP1 POP SWAP2 SWAP1 POP JUMP JUMPDEST PUSH0 PUSH2 0x15BA PUSH2 0x15B5 DUP5 PUSH2 0x1578 JUMP JUMPDEST PUSH2 0x155E JUMP JUMPDEST SWAP1 POP DUP3 DUP2 MSTORE PUSH1 0x20 DUP2 ADD DUP5 DUP5 DUP5 ADD GT ISZERO PUSH2 0x15D6 JUMPI PUSH2 0x15D5 PUSH2 0x14FC JUMP JUMPDEST JUMPDEST PUSH2 0x15E1 DUP5 DUP3 DUP6 PUSH2 0xF27 JUMP JUMPDEST POP SWAP4 SWAP3 POP POP POP JUMP JUMPDEST PUSH0 DUP3 PUSH1 0x1F DUP4 ADD SLT PUSH2 0x15FD JUMPI PUSH2 0x15FC PUSH2 0x14F8 JUMP JUMPDEST JUMPDEST DUP2 MLOAD PUSH2 0x160D DUP5 DUP3 PUSH1 0x20 DUP7 ADD PUSH2 0x15A8 JUMP JUMPDEST SWAP2 POP POP SWAP3 SWAP2 POP POP JUMP JUMPDEST PUSH0 PUSH1 0x20 DUP3 DUP5 SUB SLT ISZERO PUSH2 0x162B JUMPI PUSH2 0x162A PUSH2 0xD59 JUMP JUMPDEST JUMPDEST PUSH0 DUP3 ADD MLOAD PUSH8 0xFFFFFFFFFFFFFFFF DUP2 GT ISZERO PUSH2 0x1648 JUMPI PUSH2 0x1647 PUSH2 0xD5D JUMP JUMPDEST JUMPDEST PUSH2 0x1654 DUP5 DUP3 DUP6 ADD PUSH2 0x15E9 JUMP JUMPDEST SWAP2 POP POP SWAP3 SWAP2 POP POP JUMP JUMPDEST PUSH32 0x4E487B7100000000000000000000000000000000000000000000000000000000 PUSH0 MSTORE PUSH1 0x12 PUSH1 0x4 MSTORE PUSH1 0x24 PUSH0 REVERT JUMPDEST PUSH0 PUSH2 0x1694 DUP3 PUSH2 0xDBB JUMP JUMPDEST SWAP2 POP PUSH2 0x169F DUP4 PUSH2 0xDBB JUMP JUMPDEST SWAP3 POP DUP3 PUSH2 0x16AF JUMPI PUSH2 0x16AE PUSH2 0x165D JUMP JUMPDEST JUMPDEST DUP3 DUP3 DIV SWAP1 POP SWAP3 SWAP2 POP POP JUMP JUMPDEST PUSH32 0x4D756C7469706C69636174696F6E206F766572666C6F77000000000000000000 PUSH0 DUP3 ADD MSTORE POP JUMP JUMPDEST PUSH0 PUSH2 0x16EE PUSH1 0x17 DUP4 PUSH2 0xF17 JUMP JUMPDEST SWAP2 POP PUSH2 0x16F9 DUP3 PUSH2 0x16BA JUMP JUMPDEST PUSH1 0x20 DUP3 ADD SWAP1 POP SWAP2 SWAP1 POP JUMP JUMPDEST PUSH0 PUSH1 0x20 DUP3 ADD SWAP1 POP DUP2 DUP2 SUB PUSH0 DUP4 ADD MSTORE PUSH2 0x171B DUP2 PUSH2 0x16E2 JUMP JUMPDEST SWAP1 POP SWAP2 SWAP1 POP JUMP INVALID LOG2 PUSH5 0x6970667358 0x22 SLT KECCAK256 MOD 0xD4 BLOCKHASH 0xCA 0xBF DATALOADN 0x5FDA MCOPY DUP16 JUMPDEST SSTORE AND SELFDESTRUCT 0x29 0x4B PUSH17 0xA761968C01C573C96F1E6A356973D6473 PUSH16 0x6C634300081E00330000000000000000 "
		},
		"gasEstimates": {
			"creation": {
				"codeDepositCost": "1195200",
				"executionCost": "25503",
				"totalCost": "1220703"
			},
			"external": {
				"buyToken(uint256)": "infinite",
				"getTokenDetails()": "infinite",
				"owner()": "2529",
				"soldTokens()": "2492",
				"tokenAddress()": "2552",
				"tokenSalePrice()": "2491",
				"transferEther(address,uint256)": "infinite",
				"transferToOwner(uint256)": "infinite",
				"updateToken(address)": "26972",
				"updateTokenSalePrice(uint256)": "24793",
				"withdrawAllTokens()": "infinite"
			},
			"internal": {
				"multiply(uint256,uint256)": "infinite"
			}
		},
		"methodIdentifiers": {
			"buyToken(uint256)": "2d296bf1",
			"getTokenDetails()": "ff332ab7",
			"owner()": "8da5cb5b",
			"soldTokens()": "5ed9ebfc",
			"tokenAddress()": "9d76ea58",
			"tokenSalePrice()": "e86790eb",
			"transferEther(address,uint256)": "05b1137b",
			"transferToOwner(uint256)": "87c1ed12",
			"updateToken(address)": "7ad3def2",
			"updateTokenSalePrice(uint256)": "ffdeb903",
			"withdrawAllTokens()": "280da6fa"
		}
	},
	"abi": [
		{
			"inputs": [],
			"stateMutability": "nonpayable",
			"type": "constructor"
		},
		{
			"inputs": [
				{
					"internalType": "uint256",
					"name": "_tokenAmount",
					"type": "uint256"
				}
			],
			"name": "buyToken",
			"outputs": [],
			"stateMutability": "payable",
			"type": "function"
		},
		{
			"inputs": [],
			"name": "getTokenDetails",
			"outputs": [
				{
					"internalType": "string",
					"name": "name",
					"type": "string"
				},
				{
					"internalType": "string",
					"name": "symbol",
					"type": "string"
				},
				{
					"internalType": "uint256",
					"name": "balance",
					"type": "uint256"
				},
				{
					"internalType": "uint256",
					"name": "supply",
					"type": "uint256"
				},
				{
					"internalType": "uint256",
					"name": "tokenPrice",
					"type": "uint256"
				},
				{
					"internalType": "address",
					"name": "tokenAddr",
					"type": "address"
				}
			],
			"stateMutability": "view",
			"type": "function"
		},
		{
			"inputs": [],
			"name": "owner",
			"outputs": [
				{
					"internalType": "address",
					"name": "",
					"type": "address"
				}
			],
			"stateMutability": "view",
			"type": "function"
		},
		{
			"inputs": [],
			"name": "soldTokens",
			"outputs": [
				{
					"internalType": "uint256",
					"name": "",
					"type": "uint256"
				}
			],
			"stateMutability": "view",
			"type": "function"
		},
		{
			"inputs": [],
			"name": "tokenAddress",
			"outputs": [
				{
					"internalType": "address",
					"name": "",
					"type": "address"
				}
			],
			"stateMutability": "view",
			"type": "function"
		},
		{
			"inputs": [],
			"name": "tokenSalePrice",
			"outputs": [
				{
					"internalType": "uint256",
					"name": "",
					"type": "uint256"
				}
			],
			"stateMutability": "view",
			"type": "function"
		},
		{
			"inputs": [
				{
					"internalType": "address payable",
					"name": "_recipient",
					"type": "address"
				},
				{
					"internalType": "uint256",
					"name": "_amount",
					"type": "uint256"
				}
			],
			"name": "transferEther",
			"outputs": [],
			"stateMutability": "payable",
			"type": "function"
		},
		{
			"inputs": [
				{
					"internalType": "uint256",
					"name": "_amount",
					"type": "uint256"
				}
			],
			"name": "transferToOwner",
			"outputs": [],
			"stateMutability": "payable",
			"type": "function"
		},
		{
			"inputs": [
				{
					"internalType": "address",
					"name": "_tokenAddress",
					"type": "address"
				}
			],
			"name": "updateToken",
			"outputs": [],
			"stateMutability": "nonpayable",
			"type": "function"
		},
		{
			"inputs": [
				{
					"internalType": "uint256",
					"name": "_tokenSalePrice",
					"type": "uint256"
				}
			],
			"name": "updateTokenSalePrice",
			"outputs": [],
			"stateMutability": "nonpayable",
			"type": "function"
		},
		{
			"inputs": [],
			"name": "withdrawAllTokens",
			"outputs": [],
			"stateMutability": "nonpayable",
			"type": "function"
		}
	]
}